{
	"alterFavNum.sol": {
		"alterFavNum": {
			"abi": [
				{
					"inputs": [
						{
							"internalType": "string",
							"name": "",
							"type": "string"
						}
					],
					"name": "agePerson",
					"outputs": [
						{
							"internalType": "string",
							"name": "name",
							"type": "string"
						},
						{
							"internalType": "uint256",
							"name": "age",
							"type": "uint256"
						}
					],
					"stateMutability": "view",
					"type": "function"
				},
				{
					"inputs": [
						{
							"internalType": "string",
							"name": "_name",
							"type": "string"
						},
						{
							"internalType": "uint256",
							"name": "_age",
							"type": "uint256"
						}
					],
					"name": "createPerson",
					"outputs": [],
					"stateMutability": "nonpayable",
					"type": "function"
				},
				{
					"inputs": [],
					"name": "favNum",
					"outputs": [
						{
							"internalType": "uint256",
							"name": "",
							"type": "uint256"
						}
					],
					"stateMutability": "view",
					"type": "function"
				},
				{
					"inputs": [
						{
							"internalType": "uint256",
							"name": "num",
							"type": "uint256"
						}
					],
					"name": "setFavNum",
					"outputs": [],
					"stateMutability": "nonpayable",
					"type": "function"
				}
			],
			"devdoc": {
				"kind": "dev",
				"methods": {},
				"version": 1
			},
			"evm": {
				"assembly": "    /* \"alterFavNum.sol\":101:217  contract alterFavNum is Simple {... */\n  mstore(0x40, 0x80)\n  callvalue\n  dup1\n  iszero\n  tag_1\n  jumpi\n  0x00\n  dup1\n  revert\ntag_1:\n  pop\n  dataSize(sub_0)\n  dup1\n  dataOffset(sub_0)\n  0x00\n  codecopy\n  0x00\n  return\nstop\n\nsub_0: assembly {\n        /* \"alterFavNum.sol\":101:217  contract alterFavNum is Simple {... */\n      mstore(0x40, 0x80)\n      callvalue\n      dup1\n      iszero\n      tag_1\n      jumpi\n      0x00\n      dup1\n      revert\n    tag_1:\n      pop\n      jumpi(tag_2, lt(calldatasize, 0x04))\n      shr(0xe0, calldataload(0x00))\n      dup1\n      0x0eb4f902\n      eq\n      tag_3\n      jumpi\n      dup1\n      0x1ef455c7\n      eq\n      tag_4\n      jumpi\n      dup1\n      0x3c8df652\n      eq\n      tag_5\n      jumpi\n      dup1\n      0xdaed8f76\n      eq\n      tag_6\n      jumpi\n    tag_2:\n      0x00\n      dup1\n      revert\n        /* \"alterFavNum.sol\":136:214  function setFavNum (uint256 num) public override  {... */\n    tag_3:\n      tag_7\n      0x04\n      dup1\n      calldatasize\n      sub\n      dup2\n      add\n      swap1\n      tag_8\n      swap2\n      swap1\n      tag_9\n      jump\t// in\n    tag_8:\n      tag_10\n      jump\t// in\n    tag_7:\n      stop\n        /* \"simple.sol\":257:461  function createPerson(string memory _name, uint256 _age) public {... */\n    tag_4:\n      tag_11\n      0x04\n      dup1\n      calldatasize\n      sub\n      dup2\n      add\n      swap1\n      tag_12\n      swap2\n      swap1\n      tag_13\n      jump\t// in\n    tag_12:\n      tag_14\n      jump\t// in\n    tag_11:\n      stop\n        /* \"simple.sol\":179:197  uint public favNum */\n    tag_5:\n      tag_15\n      tag_16\n      jump\t// in\n    tag_15:\n      mload(0x40)\n      tag_17\n      swap2\n      swap1\n      tag_18\n      jump\t// in\n    tag_17:\n      mload(0x40)\n      dup1\n      swap2\n      sub\n      swap1\n      return\n        /* \"simple.sol\":206:248  mapping(string => Person) public agePerson */\n    tag_6:\n      tag_19\n      0x04\n      dup1\n      calldatasize\n      sub\n      dup2\n      add\n      swap1\n      tag_20\n      swap2\n      swap1\n      tag_21\n      jump\t// in\n    tag_20:\n      tag_22\n      jump\t// in\n    tag_19:\n      mload(0x40)\n      tag_23\n      swap3\n      swap2\n      swap1\n      tag_24\n      jump\t// in\n    tag_23:\n      mload(0x40)\n      dup1\n      swap2\n      sub\n      swap1\n      return\n        /* \"alterFavNum.sol\":136:214  function setFavNum (uint256 num) public override  {... */\n    tag_10:\n        /* \"alterFavNum.sol\":208:209  5 */\n      0x05\n        /* \"alterFavNum.sol\":202:205  num */\n      dup2\n        /* \"alterFavNum.sol\":202:209  num + 5 */\n      tag_26\n      swap2\n      swap1\n      tag_27\n      jump\t// in\n    tag_26:\n        /* \"alterFavNum.sol\":193:199  favNum */\n      0x01\n        /* \"alterFavNum.sol\":193:209  favNum = num + 5 */\n      dup2\n      swap1\n      sstore\n      pop\n        /* \"alterFavNum.sol\":136:214  function setFavNum (uint256 num) public override  {... */\n      pop\n      jump\t// out\n        /* \"simple.sol\":257:461  function createPerson(string memory _name, uint256 _age) public {... */\n    tag_14:\n        /* \"simple.sol\":332:352  Person memory person */\n      0x00\n        /* \"simple.sol\":355:387  Person ({name:_name, age: _age}) */\n      mload(0x40)\n      dup1\n      0x40\n      add\n      0x40\n      mstore\n      dup1\n        /* \"simple.sol\":369:374  _name */\n      dup5\n        /* \"simple.sol\":355:387  Person ({name:_name, age: _age}) */\n      dup2\n      mstore\n      0x20\n      add\n        /* \"simple.sol\":381:385  _age */\n      dup4\n        /* \"simple.sol\":355:387  Person ({name:_name, age: _age}) */\n      dup2\n      mstore\n      pop\n        /* \"simple.sol\":332:387  Person memory person = Person ({name:_name, age: _age}) */\n      swap1\n      pop\n        /* \"simple.sol\":398:404  people */\n      0x00\n        /* \"simple.sol\":410:416  person */\n      dup2\n        /* \"simple.sol\":398:417  people.push(person) */\n      swap1\n      dup1\n      0x01\n      dup2\n      sload\n      add\n      dup1\n      dup3\n      sstore\n      dup1\n      swap2\n      pop\n      pop\n      0x01\n      swap1\n      sub\n      swap1\n      0x00\n      mstore\n      keccak256(0x00, 0x20)\n      swap1\n      0x02\n      mul\n      add\n      0x00\n      swap1\n      swap2\n      swap1\n      swap2\n      swap1\n      swap2\n      pop\n      0x00\n      dup3\n      add\n      mload\n      dup2\n      0x00\n      add\n      swap1\n      dup2\n      tag_30\n      swap2\n      swap1\n      tag_31\n      jump\t// in\n    tag_30:\n      pop\n      0x20\n      dup3\n      add\n      mload\n      dup2\n      0x01\n      add\n      sstore\n      pop\n      pop\n        /* \"simple.sol\":447:453  person */\n      dup1\n        /* \"simple.sol\":428:437  agePerson */\n      0x02\n        /* \"simple.sol\":438:443  _name */\n      dup5\n        /* \"simple.sol\":428:444  agePerson[_name] */\n      mload(0x40)\n      tag_32\n      swap2\n      swap1\n      tag_33\n      jump\t// in\n    tag_32:\n      swap1\n      dup2\n      mstore\n      0x20\n      add\n      mload(0x40)\n      dup1\n      swap2\n      sub\n      swap1\n      keccak256\n        /* \"simple.sol\":428:453  agePerson[_name] = person */\n      0x00\n      dup3\n      add\n      mload\n      dup2\n      0x00\n      add\n      swap1\n      dup2\n      tag_34\n      swap2\n      swap1\n      tag_31\n      jump\t// in\n    tag_34:\n      pop\n      0x20\n      dup3\n      add\n      mload\n      dup2\n      0x01\n      add\n      sstore\n      swap1\n      pop\n      pop\n        /* \"simple.sol\":321:461  {... */\n      pop\n        /* \"simple.sol\":257:461  function createPerson(string memory _name, uint256 _age) public {... */\n      pop\n      pop\n      jump\t// out\n        /* \"simple.sol\":179:197  uint public favNum */\n    tag_16:\n      sload(0x01)\n      dup2\n      jump\t// out\n        /* \"simple.sol\":206:248  mapping(string => Person) public agePerson */\n    tag_22:\n      0x02\n      dup2\n      dup1\n      mload\n      0x20\n      dup2\n      add\n      dup3\n      add\n      dup1\n      mload\n      dup5\n      dup3\n      mstore\n      0x20\n      dup4\n      add\n      0x20\n      dup6\n      add\n      keccak256\n      dup2\n      dup4\n      mstore\n      dup1\n      swap6\n      pop\n      pop\n      pop\n      pop\n      pop\n      pop\n      0x00\n      swap2\n      pop\n      swap1\n      pop\n      dup1\n      0x00\n      add\n      dup1\n      sload\n      tag_35\n      swap1\n      tag_36\n      jump\t// in\n    tag_35:\n      dup1\n      0x1f\n      add\n      0x20\n      dup1\n      swap2\n      div\n      mul\n      0x20\n      add\n      mload(0x40)\n      swap1\n      dup2\n      add\n      0x40\n      mstore\n      dup1\n      swap3\n      swap2\n      swap1\n      dup2\n      dup2\n      mstore\n      0x20\n      add\n      dup3\n      dup1\n      sload\n      tag_37\n      swap1\n      tag_36\n      jump\t// in\n    tag_37:\n      dup1\n      iszero\n      tag_38\n      jumpi\n      dup1\n      0x1f\n      lt\n      tag_39\n      jumpi\n      0x0100\n      dup1\n      dup4\n      sload\n      div\n      mul\n      dup4\n      mstore\n      swap2\n      0x20\n      add\n      swap2\n      jump(tag_38)\n    tag_39:\n      dup3\n      add\n      swap2\n      swap1\n      0x00\n      mstore\n      keccak256(0x00, 0x20)\n      swap1\n    tag_40:\n      dup2\n      sload\n      dup2\n      mstore\n      swap1\n      0x01\n      add\n      swap1\n      0x20\n      add\n      dup1\n      dup4\n      gt\n      tag_40\n      jumpi\n      dup3\n      swap1\n      sub\n      0x1f\n      and\n      dup3\n      add\n      swap2\n    tag_38:\n      pop\n      pop\n      pop\n      pop\n      pop\n      swap1\n      dup1\n      0x01\n      add\n      sload\n      swap1\n      pop\n      dup3\n      jump\t// out\n        /* \"#utility.yul\":7:82   */\n    tag_41:\n        /* \"#utility.yul\":40:46   */\n      0x00\n        /* \"#utility.yul\":73:75   */\n      0x40\n        /* \"#utility.yul\":67:76   */\n      mload\n        /* \"#utility.yul\":57:76   */\n      swap1\n      pop\n        /* \"#utility.yul\":7:82   */\n      swap1\n      jump\t// out\n        /* \"#utility.yul\":88:205   */\n    tag_42:\n        /* \"#utility.yul\":197:198   */\n      0x00\n        /* \"#utility.yul\":194:195   */\n      dup1\n        /* \"#utility.yul\":187:199   */\n      revert\n        /* \"#utility.yul\":211:328   */\n    tag_43:\n        /* \"#utility.yul\":320:321   */\n      0x00\n        /* \"#utility.yul\":317:318   */\n      dup1\n        /* \"#utility.yul\":310:322   */\n      revert\n        /* \"#utility.yul\":334:411   */\n    tag_44:\n        /* \"#utility.yul\":371:378   */\n      0x00\n        /* \"#utility.yul\":400:405   */\n      dup2\n        /* \"#utility.yul\":389:405   */\n      swap1\n      pop\n        /* \"#utility.yul\":334:411   */\n      swap2\n      swap1\n      pop\n      jump\t// out\n        /* \"#utility.yul\":417:539   */\n    tag_45:\n        /* \"#utility.yul\":490:514   */\n      tag_87\n        /* \"#utility.yul\":508:513   */\n      dup2\n        /* \"#utility.yul\":490:514   */\n      tag_44\n      jump\t// in\n    tag_87:\n        /* \"#utility.yul\":483:488   */\n      dup2\n        /* \"#utility.yul\":480:515   */\n      eq\n        /* \"#utility.yul\":470:533   */\n      tag_88\n      jumpi\n        /* \"#utility.yul\":529:530   */\n      0x00\n        /* \"#utility.yul\":526:527   */\n      dup1\n        /* \"#utility.yul\":519:531   */\n      revert\n        /* \"#utility.yul\":470:533   */\n    tag_88:\n        /* \"#utility.yul\":417:539   */\n      pop\n      jump\t// out\n        /* \"#utility.yul\":545:684   */\n    tag_46:\n        /* \"#utility.yul\":591:596   */\n      0x00\n        /* \"#utility.yul\":629:635   */\n      dup2\n        /* \"#utility.yul\":616:636   */\n      calldataload\n        /* \"#utility.yul\":607:636   */\n      swap1\n      pop\n        /* \"#utility.yul\":645:678   */\n      tag_90\n        /* \"#utility.yul\":672:677   */\n      dup2\n        /* \"#utility.yul\":645:678   */\n      tag_45\n      jump\t// in\n    tag_90:\n        /* \"#utility.yul\":545:684   */\n      swap3\n      swap2\n      pop\n      pop\n      jump\t// out\n        /* \"#utility.yul\":690:1019   */\n    tag_9:\n        /* \"#utility.yul\":749:755   */\n      0x00\n        /* \"#utility.yul\":798:800   */\n      0x20\n        /* \"#utility.yul\":786:795   */\n      dup3\n        /* \"#utility.yul\":777:784   */\n      dup5\n        /* \"#utility.yul\":773:796   */\n      sub\n        /* \"#utility.yul\":769:801   */\n      slt\n        /* \"#utility.yul\":766:885   */\n      iszero\n      tag_92\n      jumpi\n        /* \"#utility.yul\":804:883   */\n      tag_93\n      tag_42\n      jump\t// in\n    tag_93:\n        /* \"#utility.yul\":766:885   */\n    tag_92:\n        /* \"#utility.yul\":924:925   */\n      0x00\n        /* \"#utility.yul\":949:1002   */\n      tag_94\n        /* \"#utility.yul\":994:1001   */\n      dup5\n        /* \"#utility.yul\":985:991   */\n      dup3\n        /* \"#utility.yul\":974:983   */\n      dup6\n        /* \"#utility.yul\":970:992   */\n      add\n        /* \"#utility.yul\":949:1002   */\n      tag_46\n      jump\t// in\n    tag_94:\n        /* \"#utility.yul\":939:1002   */\n      swap2\n      pop\n        /* \"#utility.yul\":895:1012   */\n      pop\n        /* \"#utility.yul\":690:1019   */\n      swap3\n      swap2\n      pop\n      pop\n      jump\t// out\n        /* \"#utility.yul\":1025:1142   */\n    tag_47:\n        /* \"#utility.yul\":1134:1135   */\n      0x00\n        /* \"#utility.yul\":1131:1132   */\n      dup1\n        /* \"#utility.yul\":1124:1136   */\n      revert\n        /* \"#utility.yul\":1148:1265   */\n    tag_48:\n        /* \"#utility.yul\":1257:1258   */\n      0x00\n        /* \"#utility.yul\":1254:1255   */\n      dup1\n        /* \"#utility.yul\":1247:1259   */\n      revert\n        /* \"#utility.yul\":1271:1373   */\n    tag_49:\n        /* \"#utility.yul\":1312:1318   */\n      0x00\n        /* \"#utility.yul\":1363:1365   */\n      0x1f\n        /* \"#utility.yul\":1359:1366   */\n      not\n        /* \"#utility.yul\":1354:1356   */\n      0x1f\n        /* \"#utility.yul\":1347:1352   */\n      dup4\n        /* \"#utility.yul\":1343:1357   */\n      add\n        /* \"#utility.yul\":1339:1367   */\n      and\n        /* \"#utility.yul\":1329:1367   */\n      swap1\n      pop\n        /* \"#utility.yul\":1271:1373   */\n      swap2\n      swap1\n      pop\n      jump\t// out\n        /* \"#utility.yul\":1379:1559   */\n    tag_50:\n        /* \"#utility.yul\":1427:1504   */\n      0x4e487b7100000000000000000000000000000000000000000000000000000000\n        /* \"#utility.yul\":1424:1425   */\n      0x00\n        /* \"#utility.yul\":1417:1505   */\n      mstore\n        /* \"#utility.yul\":1524:1528   */\n      0x41\n        /* \"#utility.yul\":1521:1522   */\n      0x04\n        /* \"#utility.yul\":1514:1529   */\n      mstore\n        /* \"#utility.yul\":1548:1552   */\n      0x24\n        /* \"#utility.yul\":1545:1546   */\n      0x00\n        /* \"#utility.yul\":1538:1553   */\n      revert\n        /* \"#utility.yul\":1565:1846   */\n    tag_51:\n        /* \"#utility.yul\":1648:1675   */\n      tag_100\n        /* \"#utility.yul\":1670:1674   */\n      dup3\n        /* \"#utility.yul\":1648:1675   */\n      tag_49\n      jump\t// in\n    tag_100:\n        /* \"#utility.yul\":1640:1646   */\n      dup2\n        /* \"#utility.yul\":1636:1676   */\n      add\n        /* \"#utility.yul\":1778:1784   */\n      dup2\n        /* \"#utility.yul\":1766:1776   */\n      dup2\n        /* \"#utility.yul\":1763:1785   */\n      lt\n        /* \"#utility.yul\":1742:1760   */\n      0xffffffffffffffff\n        /* \"#utility.yul\":1730:1740   */\n      dup3\n        /* \"#utility.yul\":1727:1761   */\n      gt\n        /* \"#utility.yul\":1724:1786   */\n      or\n        /* \"#utility.yul\":1721:1809   */\n      iszero\n      tag_101\n      jumpi\n        /* \"#utility.yul\":1789:1807   */\n      tag_102\n      tag_50\n      jump\t// in\n    tag_102:\n        /* \"#utility.yul\":1721:1809   */\n    tag_101:\n        /* \"#utility.yul\":1829:1839   */\n      dup1\n        /* \"#utility.yul\":1825:1827   */\n      0x40\n        /* \"#utility.yul\":1818:1840   */\n      mstore\n        /* \"#utility.yul\":1608:1846   */\n      pop\n        /* \"#utility.yul\":1565:1846   */\n      pop\n      pop\n      jump\t// out\n        /* \"#utility.yul\":1852:1981   */\n    tag_52:\n        /* \"#utility.yul\":1886:1892   */\n      0x00\n        /* \"#utility.yul\":1913:1933   */\n      tag_104\n      tag_41\n      jump\t// in\n    tag_104:\n        /* \"#utility.yul\":1903:1933   */\n      swap1\n      pop\n        /* \"#utility.yul\":1942:1975   */\n      tag_105\n        /* \"#utility.yul\":1970:1974   */\n      dup3\n        /* \"#utility.yul\":1962:1968   */\n      dup3\n        /* \"#utility.yul\":1942:1975   */\n      tag_51\n      jump\t// in\n    tag_105:\n        /* \"#utility.yul\":1852:1981   */\n      swap2\n      swap1\n      pop\n      jump\t// out\n        /* \"#utility.yul\":1987:2295   */\n    tag_53:\n        /* \"#utility.yul\":2049:2053   */\n      0x00\n        /* \"#utility.yul\":2139:2157   */\n      0xffffffffffffffff\n        /* \"#utility.yul\":2131:2137   */\n      dup3\n        /* \"#utility.yul\":2128:2158   */\n      gt\n        /* \"#utility.yul\":2125:2181   */\n      iszero\n      tag_107\n      jumpi\n        /* \"#utility.yul\":2161:2179   */\n      tag_108\n      tag_50\n      jump\t// in\n    tag_108:\n        /* \"#utility.yul\":2125:2181   */\n    tag_107:\n        /* \"#utility.yul\":2199:2228   */\n      tag_109\n        /* \"#utility.yul\":2221:2227   */\n      dup3\n        /* \"#utility.yul\":2199:2228   */\n      tag_49\n      jump\t// in\n    tag_109:\n        /* \"#utility.yul\":2191:2228   */\n      swap1\n      pop\n        /* \"#utility.yul\":2283:2287   */\n      0x20\n        /* \"#utility.yul\":2277:2281   */\n      dup2\n        /* \"#utility.yul\":2273:2288   */\n      add\n        /* \"#utility.yul\":2265:2288   */\n      swap1\n      pop\n        /* \"#utility.yul\":1987:2295   */\n      swap2\n      swap1\n      pop\n      jump\t// out\n        /* \"#utility.yul\":2301:2447   */\n    tag_54:\n        /* \"#utility.yul\":2398:2404   */\n      dup3\n        /* \"#utility.yul\":2393:2396   */\n      dup2\n        /* \"#utility.yul\":2388:2391   */\n      dup4\n        /* \"#utility.yul\":2375:2405   */\n      calldatacopy\n        /* \"#utility.yul\":2439:2440   */\n      0x00\n        /* \"#utility.yul\":2430:2436   */\n      dup4\n        /* \"#utility.yul\":2425:2428   */\n      dup4\n        /* \"#utility.yul\":2421:2437   */\n      add\n        /* \"#utility.yul\":2414:2441   */\n      mstore\n        /* \"#utility.yul\":2301:2447   */\n      pop\n      pop\n      pop\n      jump\t// out\n        /* \"#utility.yul\":2453:2878   */\n    tag_55:\n        /* \"#utility.yul\":2531:2536   */\n      0x00\n        /* \"#utility.yul\":2556:2622   */\n      tag_112\n        /* \"#utility.yul\":2572:2621   */\n      tag_113\n        /* \"#utility.yul\":2614:2620   */\n      dup5\n        /* \"#utility.yul\":2572:2621   */\n      tag_53\n      jump\t// in\n    tag_113:\n        /* \"#utility.yul\":2556:2622   */\n      tag_52\n      jump\t// in\n    tag_112:\n        /* \"#utility.yul\":2547:2622   */\n      swap1\n      pop\n        /* \"#utility.yul\":2645:2651   */\n      dup3\n        /* \"#utility.yul\":2638:2643   */\n      dup2\n        /* \"#utility.yul\":2631:2652   */\n      mstore\n        /* \"#utility.yul\":2683:2687   */\n      0x20\n        /* \"#utility.yul\":2676:2681   */\n      dup2\n        /* \"#utility.yul\":2672:2688   */\n      add\n        /* \"#utility.yul\":2721:2724   */\n      dup5\n        /* \"#utility.yul\":2712:2718   */\n      dup5\n        /* \"#utility.yul\":2707:2710   */\n      dup5\n        /* \"#utility.yul\":2703:2719   */\n      add\n        /* \"#utility.yul\":2700:2725   */\n      gt\n        /* \"#utility.yul\":2697:2809   */\n      iszero\n      tag_114\n      jumpi\n        /* \"#utility.yul\":2728:2807   */\n      tag_115\n      tag_48\n      jump\t// in\n    tag_115:\n        /* \"#utility.yul\":2697:2809   */\n    tag_114:\n        /* \"#utility.yul\":2818:2872   */\n      tag_116\n        /* \"#utility.yul\":2865:2871   */\n      dup5\n        /* \"#utility.yul\":2860:2863   */\n      dup3\n        /* \"#utility.yul\":2855:2858   */\n      dup6\n        /* \"#utility.yul\":2818:2872   */\n      tag_54\n      jump\t// in\n    tag_116:\n        /* \"#utility.yul\":2537:2878   */\n      pop\n        /* \"#utility.yul\":2453:2878   */\n      swap4\n      swap3\n      pop\n      pop\n      pop\n      jump\t// out\n        /* \"#utility.yul\":2898:3238   */\n    tag_56:\n        /* \"#utility.yul\":2954:2959   */\n      0x00\n        /* \"#utility.yul\":3003:3006   */\n      dup3\n        /* \"#utility.yul\":2996:3000   */\n      0x1f\n        /* \"#utility.yul\":2988:2994   */\n      dup4\n        /* \"#utility.yul\":2984:3001   */\n      add\n        /* \"#utility.yul\":2980:3007   */\n      slt\n        /* \"#utility.yul\":2970:3092   */\n      tag_118\n      jumpi\n        /* \"#utility.yul\":3011:3090   */\n      tag_119\n      tag_47\n      jump\t// in\n    tag_119:\n        /* \"#utility.yul\":2970:3092   */\n    tag_118:\n        /* \"#utility.yul\":3128:3134   */\n      dup2\n        /* \"#utility.yul\":3115:3135   */\n      calldataload\n        /* \"#utility.yul\":3153:3232   */\n      tag_120\n        /* \"#utility.yul\":3228:3231   */\n      dup5\n        /* \"#utility.yul\":3220:3226   */\n      dup3\n        /* \"#utility.yul\":3213:3217   */\n      0x20\n        /* \"#utility.yul\":3205:3211   */\n      dup7\n        /* \"#utility.yul\":3201:3218   */\n      add\n        /* \"#utility.yul\":3153:3232   */\n      tag_55\n      jump\t// in\n    tag_120:\n        /* \"#utility.yul\":3144:3232   */\n      swap2\n      pop\n        /* \"#utility.yul\":2960:3238   */\n      pop\n        /* \"#utility.yul\":2898:3238   */\n      swap3\n      swap2\n      pop\n      pop\n      jump\t// out\n        /* \"#utility.yul\":3244:3898   */\n    tag_13:\n        /* \"#utility.yul\":3322:3328   */\n      0x00\n        /* \"#utility.yul\":3330:3336   */\n      dup1\n        /* \"#utility.yul\":3379:3381   */\n      0x40\n        /* \"#utility.yul\":3367:3376   */\n      dup4\n        /* \"#utility.yul\":3358:3365   */\n      dup6\n        /* \"#utility.yul\":3354:3377   */\n      sub\n        /* \"#utility.yul\":3350:3382   */\n      slt\n        /* \"#utility.yul\":3347:3466   */\n      iszero\n      tag_122\n      jumpi\n        /* \"#utility.yul\":3385:3464   */\n      tag_123\n      tag_42\n      jump\t// in\n    tag_123:\n        /* \"#utility.yul\":3347:3466   */\n    tag_122:\n        /* \"#utility.yul\":3533:3534   */\n      0x00\n        /* \"#utility.yul\":3522:3531   */\n      dup4\n        /* \"#utility.yul\":3518:3535   */\n      add\n        /* \"#utility.yul\":3505:3536   */\n      calldataload\n        /* \"#utility.yul\":3563:3581   */\n      0xffffffffffffffff\n        /* \"#utility.yul\":3555:3561   */\n      dup2\n        /* \"#utility.yul\":3552:3582   */\n      gt\n        /* \"#utility.yul\":3549:3666   */\n      iszero\n      tag_124\n      jumpi\n        /* \"#utility.yul\":3585:3664   */\n      tag_125\n      tag_43\n      jump\t// in\n    tag_125:\n        /* \"#utility.yul\":3549:3666   */\n    tag_124:\n        /* \"#utility.yul\":3690:3753   */\n      tag_126\n        /* \"#utility.yul\":3745:3752   */\n      dup6\n        /* \"#utility.yul\":3736:3742   */\n      dup3\n        /* \"#utility.yul\":3725:3734   */\n      dup7\n        /* \"#utility.yul\":3721:3743   */\n      add\n        /* \"#utility.yul\":3690:3753   */\n      tag_56\n      jump\t// in\n    tag_126:\n        /* \"#utility.yul\":3680:3753   */\n      swap3\n      pop\n        /* \"#utility.yul\":3476:3763   */\n      pop\n        /* \"#utility.yul\":3802:3804   */\n      0x20\n        /* \"#utility.yul\":3828:3881   */\n      tag_127\n        /* \"#utility.yul\":3873:3880   */\n      dup6\n        /* \"#utility.yul\":3864:3870   */\n      dup3\n        /* \"#utility.yul\":3853:3862   */\n      dup7\n        /* \"#utility.yul\":3849:3871   */\n      add\n        /* \"#utility.yul\":3828:3881   */\n      tag_46\n      jump\t// in\n    tag_127:\n        /* \"#utility.yul\":3818:3881   */\n      swap2\n      pop\n        /* \"#utility.yul\":3773:3891   */\n      pop\n        /* \"#utility.yul\":3244:3898   */\n      swap3\n      pop\n      swap3\n      swap1\n      pop\n      jump\t// out\n        /* \"#utility.yul\":3904:4022   */\n    tag_57:\n        /* \"#utility.yul\":3991:4015   */\n      tag_129\n        /* \"#utility.yul\":4009:4014   */\n      dup2\n        /* \"#utility.yul\":3991:4015   */\n      tag_44\n      jump\t// in\n    tag_129:\n        /* \"#utility.yul\":3986:3989   */\n      dup3\n        /* \"#utility.yul\":3979:4016   */\n      mstore\n        /* \"#utility.yul\":3904:4022   */\n      pop\n      pop\n      jump\t// out\n        /* \"#utility.yul\":4028:4250   */\n    tag_18:\n        /* \"#utility.yul\":4121:4125   */\n      0x00\n        /* \"#utility.yul\":4159:4161   */\n      0x20\n        /* \"#utility.yul\":4148:4157   */\n      dup3\n        /* \"#utility.yul\":4144:4162   */\n      add\n        /* \"#utility.yul\":4136:4162   */\n      swap1\n      pop\n        /* \"#utility.yul\":4172:4243   */\n      tag_131\n        /* \"#utility.yul\":4240:4241   */\n      0x00\n        /* \"#utility.yul\":4229:4238   */\n      dup4\n        /* \"#utility.yul\":4225:4242   */\n      add\n        /* \"#utility.yul\":4216:4222   */\n      dup5\n        /* \"#utility.yul\":4172:4243   */\n      tag_57\n      jump\t// in\n    tag_131:\n        /* \"#utility.yul\":4028:4250   */\n      swap3\n      swap2\n      pop\n      pop\n      jump\t// out\n        /* \"#utility.yul\":4256:4765   */\n    tag_21:\n        /* \"#utility.yul\":4325:4331   */\n      0x00\n        /* \"#utility.yul\":4374:4376   */\n      0x20\n        /* \"#utility.yul\":4362:4371   */\n      dup3\n        /* \"#utility.yul\":4353:4360   */\n      dup5\n        /* \"#utility.yul\":4349:4372   */\n      sub\n        /* \"#utility.yul\":4345:4377   */\n      slt\n        /* \"#utility.yul\":4342:4461   */\n      iszero\n      tag_133\n      jumpi\n        /* \"#utility.yul\":4380:4459   */\n      tag_134\n      tag_42\n      jump\t// in\n    tag_134:\n        /* \"#utility.yul\":4342:4461   */\n    tag_133:\n        /* \"#utility.yul\":4528:4529   */\n      0x00\n        /* \"#utility.yul\":4517:4526   */\n      dup3\n        /* \"#utility.yul\":4513:4530   */\n      add\n        /* \"#utility.yul\":4500:4531   */\n      calldataload\n        /* \"#utility.yul\":4558:4576   */\n      0xffffffffffffffff\n        /* \"#utility.yul\":4550:4556   */\n      dup2\n        /* \"#utility.yul\":4547:4577   */\n      gt\n        /* \"#utility.yul\":4544:4661   */\n      iszero\n      tag_135\n      jumpi\n        /* \"#utility.yul\":4580:4659   */\n      tag_136\n      tag_43\n      jump\t// in\n    tag_136:\n        /* \"#utility.yul\":4544:4661   */\n    tag_135:\n        /* \"#utility.yul\":4685:4748   */\n      tag_137\n        /* \"#utility.yul\":4740:4747   */\n      dup5\n        /* \"#utility.yul\":4731:4737   */\n      dup3\n        /* \"#utility.yul\":4720:4729   */\n      dup6\n        /* \"#utility.yul\":4716:4738   */\n      add\n        /* \"#utility.yul\":4685:4748   */\n      tag_56\n      jump\t// in\n    tag_137:\n        /* \"#utility.yul\":4675:4748   */\n      swap2\n      pop\n        /* \"#utility.yul\":4471:4758   */\n      pop\n        /* \"#utility.yul\":4256:4765   */\n      swap3\n      swap2\n      pop\n      pop\n      jump\t// out\n        /* \"#utility.yul\":4771:4870   */\n    tag_58:\n        /* \"#utility.yul\":4823:4829   */\n      0x00\n        /* \"#utility.yul\":4857:4862   */\n      dup2\n        /* \"#utility.yul\":4851:4863   */\n      mload\n        /* \"#utility.yul\":4841:4863   */\n      swap1\n      pop\n        /* \"#utility.yul\":4771:4870   */\n      swap2\n      swap1\n      pop\n      jump\t// out\n        /* \"#utility.yul\":4876:5045   */\n    tag_59:\n        /* \"#utility.yul\":4960:4971   */\n      0x00\n        /* \"#utility.yul\":4994:5000   */\n      dup3\n        /* \"#utility.yul\":4989:4992   */\n      dup3\n        /* \"#utility.yul\":4982:5001   */\n      mstore\n        /* \"#utility.yul\":5034:5038   */\n      0x20\n        /* \"#utility.yul\":5029:5032   */\n      dup3\n        /* \"#utility.yul\":5025:5039   */\n      add\n        /* \"#utility.yul\":5010:5039   */\n      swap1\n      pop\n        /* \"#utility.yul\":4876:5045   */\n      swap3\n      swap2\n      pop\n      pop\n      jump\t// out\n        /* \"#utility.yul\":5051:5297   */\n    tag_60:\n        /* \"#utility.yul\":5132:5133   */\n      0x00\n        /* \"#utility.yul\":5142:5255   */\n    tag_141:\n        /* \"#utility.yul\":5156:5162   */\n      dup4\n        /* \"#utility.yul\":5153:5154   */\n      dup2\n        /* \"#utility.yul\":5150:5163   */\n      lt\n        /* \"#utility.yul\":5142:5255   */\n      iszero\n      tag_143\n      jumpi\n        /* \"#utility.yul\":5241:5242   */\n      dup1\n        /* \"#utility.yul\":5236:5239   */\n      dup3\n        /* \"#utility.yul\":5232:5243   */\n      add\n        /* \"#utility.yul\":5226:5244   */\n      mload\n        /* \"#utility.yul\":5222:5223   */\n      dup2\n        /* \"#utility.yul\":5217:5220   */\n      dup5\n        /* \"#utility.yul\":5213:5224   */\n      add\n        /* \"#utility.yul\":5206:5245   */\n      mstore\n        /* \"#utility.yul\":5178:5180   */\n      0x20\n        /* \"#utility.yul\":5175:5176   */\n      dup2\n        /* \"#utility.yul\":5171:5181   */\n      add\n        /* \"#utility.yul\":5166:5181   */\n      swap1\n      pop\n        /* \"#utility.yul\":5142:5255   */\n      jump(tag_141)\n    tag_143:\n        /* \"#utility.yul\":5289:5290   */\n      0x00\n        /* \"#utility.yul\":5280:5286   */\n      dup5\n        /* \"#utility.yul\":5275:5278   */\n      dup5\n        /* \"#utility.yul\":5271:5287   */\n      add\n        /* \"#utility.yul\":5264:5291   */\n      mstore\n        /* \"#utility.yul\":5113:5297   */\n      pop\n        /* \"#utility.yul\":5051:5297   */\n      pop\n      pop\n      pop\n      jump\t// out\n        /* \"#utility.yul\":5303:5680   */\n    tag_61:\n        /* \"#utility.yul\":5391:5394   */\n      0x00\n        /* \"#utility.yul\":5419:5458   */\n      tag_145\n        /* \"#utility.yul\":5452:5457   */\n      dup3\n        /* \"#utility.yul\":5419:5458   */\n      tag_58\n      jump\t// in\n    tag_145:\n        /* \"#utility.yul\":5474:5545   */\n      tag_146\n        /* \"#utility.yul\":5538:5544   */\n      dup2\n        /* \"#utility.yul\":5533:5536   */\n      dup6\n        /* \"#utility.yul\":5474:5545   */\n      tag_59\n      jump\t// in\n    tag_146:\n        /* \"#utility.yul\":5467:5545   */\n      swap4\n      pop\n        /* \"#utility.yul\":5554:5619   */\n      tag_147\n        /* \"#utility.yul\":5612:5618   */\n      dup2\n        /* \"#utility.yul\":5607:5610   */\n      dup6\n        /* \"#utility.yul\":5600:5604   */\n      0x20\n        /* \"#utility.yul\":5593:5598   */\n      dup7\n        /* \"#utility.yul\":5589:5605   */\n      add\n        /* \"#utility.yul\":5554:5619   */\n      tag_60\n      jump\t// in\n    tag_147:\n        /* \"#utility.yul\":5644:5673   */\n      tag_148\n        /* \"#utility.yul\":5666:5672   */\n      dup2\n        /* \"#utility.yul\":5644:5673   */\n      tag_49\n      jump\t// in\n    tag_148:\n        /* \"#utility.yul\":5639:5642   */\n      dup5\n        /* \"#utility.yul\":5635:5674   */\n      add\n        /* \"#utility.yul\":5628:5674   */\n      swap2\n      pop\n        /* \"#utility.yul\":5395:5680   */\n      pop\n        /* \"#utility.yul\":5303:5680   */\n      swap3\n      swap2\n      pop\n      pop\n      jump\t// out\n        /* \"#utility.yul\":5686:6109   */\n    tag_24:\n        /* \"#utility.yul\":5827:5831   */\n      0x00\n        /* \"#utility.yul\":5865:5867   */\n      0x40\n        /* \"#utility.yul\":5854:5863   */\n      dup3\n        /* \"#utility.yul\":5850:5868   */\n      add\n        /* \"#utility.yul\":5842:5868   */\n      swap1\n      pop\n        /* \"#utility.yul\":5914:5923   */\n      dup2\n        /* \"#utility.yul\":5908:5912   */\n      dup2\n        /* \"#utility.yul\":5904:5924   */\n      sub\n        /* \"#utility.yul\":5900:5901   */\n      0x00\n        /* \"#utility.yul\":5889:5898   */\n      dup4\n        /* \"#utility.yul\":5885:5902   */\n      add\n        /* \"#utility.yul\":5878:5925   */\n      mstore\n        /* \"#utility.yul\":5942:6020   */\n      tag_150\n        /* \"#utility.yul\":6015:6019   */\n      dup2\n        /* \"#utility.yul\":6006:6012   */\n      dup6\n        /* \"#utility.yul\":5942:6020   */\n      tag_61\n      jump\t// in\n    tag_150:\n        /* \"#utility.yul\":5934:6020   */\n      swap1\n      pop\n        /* \"#utility.yul\":6030:6102   */\n      tag_151\n        /* \"#utility.yul\":6098:6100   */\n      0x20\n        /* \"#utility.yul\":6087:6096   */\n      dup4\n        /* \"#utility.yul\":6083:6101   */\n      add\n        /* \"#utility.yul\":6074:6080   */\n      dup5\n        /* \"#utility.yul\":6030:6102   */\n      tag_57\n      jump\t// in\n    tag_151:\n        /* \"#utility.yul\":5686:6109   */\n      swap4\n      swap3\n      pop\n      pop\n      pop\n      jump\t// out\n        /* \"#utility.yul\":6115:6295   */\n    tag_62:\n        /* \"#utility.yul\":6163:6240   */\n      0x4e487b7100000000000000000000000000000000000000000000000000000000\n        /* \"#utility.yul\":6160:6161   */\n      0x00\n        /* \"#utility.yul\":6153:6241   */\n      mstore\n        /* \"#utility.yul\":6260:6264   */\n      0x11\n        /* \"#utility.yul\":6257:6258   */\n      0x04\n        /* \"#utility.yul\":6250:6265   */\n      mstore\n        /* \"#utility.yul\":6284:6288   */\n      0x24\n        /* \"#utility.yul\":6281:6282   */\n      0x00\n        /* \"#utility.yul\":6274:6289   */\n      revert\n        /* \"#utility.yul\":6301:6492   */\n    tag_27:\n        /* \"#utility.yul\":6341:6344   */\n      0x00\n        /* \"#utility.yul\":6360:6380   */\n      tag_154\n        /* \"#utility.yul\":6378:6379   */\n      dup3\n        /* \"#utility.yul\":6360:6380   */\n      tag_44\n      jump\t// in\n    tag_154:\n        /* \"#utility.yul\":6355:6380   */\n      swap2\n      pop\n        /* \"#utility.yul\":6394:6414   */\n      tag_155\n        /* \"#utility.yul\":6412:6413   */\n      dup4\n        /* \"#utility.yul\":6394:6414   */\n      tag_44\n      jump\t// in\n    tag_155:\n        /* \"#utility.yul\":6389:6414   */\n      swap3\n      pop\n        /* \"#utility.yul\":6437:6438   */\n      dup3\n        /* \"#utility.yul\":6434:6435   */\n      dup3\n        /* \"#utility.yul\":6430:6439   */\n      add\n        /* \"#utility.yul\":6423:6439   */\n      swap1\n      pop\n        /* \"#utility.yul\":6458:6461   */\n      dup1\n        /* \"#utility.yul\":6455:6456   */\n      dup3\n        /* \"#utility.yul\":6452:6462   */\n      gt\n        /* \"#utility.yul\":6449:6485   */\n      iszero\n      tag_156\n      jumpi\n        /* \"#utility.yul\":6465:6483   */\n      tag_157\n      tag_62\n      jump\t// in\n    tag_157:\n        /* \"#utility.yul\":6449:6485   */\n    tag_156:\n        /* \"#utility.yul\":6301:6492   */\n      swap3\n      swap2\n      pop\n      pop\n      jump\t// out\n        /* \"#utility.yul\":6498:6678   */\n    tag_63:\n        /* \"#utility.yul\":6546:6623   */\n      0x4e487b7100000000000000000000000000000000000000000000000000000000\n        /* \"#utility.yul\":6543:6544   */\n      0x00\n        /* \"#utility.yul\":6536:6624   */\n      mstore\n        /* \"#utility.yul\":6643:6647   */\n      0x22\n        /* \"#utility.yul\":6640:6641   */\n      0x04\n        /* \"#utility.yul\":6633:6648   */\n      mstore\n        /* \"#utility.yul\":6667:6671   */\n      0x24\n        /* \"#utility.yul\":6664:6665   */\n      0x00\n        /* \"#utility.yul\":6657:6672   */\n      revert\n        /* \"#utility.yul\":6684:7004   */\n    tag_36:\n        /* \"#utility.yul\":6728:6734   */\n      0x00\n        /* \"#utility.yul\":6765:6766   */\n      0x02\n        /* \"#utility.yul\":6759:6763   */\n      dup3\n        /* \"#utility.yul\":6755:6767   */\n      div\n        /* \"#utility.yul\":6745:6767   */\n      swap1\n      pop\n        /* \"#utility.yul\":6812:6813   */\n      0x01\n        /* \"#utility.yul\":6806:6810   */\n      dup3\n        /* \"#utility.yul\":6802:6814   */\n      and\n        /* \"#utility.yul\":6833:6851   */\n      dup1\n        /* \"#utility.yul\":6823:6904   */\n      tag_160\n      jumpi\n        /* \"#utility.yul\":6889:6893   */\n      0x7f\n        /* \"#utility.yul\":6881:6887   */\n      dup3\n        /* \"#utility.yul\":6877:6894   */\n      and\n        /* \"#utility.yul\":6867:6894   */\n      swap2\n      pop\n        /* \"#utility.yul\":6823:6904   */\n    tag_160:\n        /* \"#utility.yul\":6951:6953   */\n      0x20\n        /* \"#utility.yul\":6943:6949   */\n      dup3\n        /* \"#utility.yul\":6940:6954   */\n      lt\n        /* \"#utility.yul\":6920:6938   */\n      dup2\n        /* \"#utility.yul\":6917:6955   */\n      sub\n        /* \"#utility.yul\":6914:6998   */\n      tag_161\n      jumpi\n        /* \"#utility.yul\":6970:6988   */\n      tag_162\n      tag_63\n      jump\t// in\n    tag_162:\n        /* \"#utility.yul\":6914:6998   */\n    tag_161:\n        /* \"#utility.yul\":6735:7004   */\n      pop\n        /* \"#utility.yul\":6684:7004   */\n      swap2\n      swap1\n      pop\n      jump\t// out\n        /* \"#utility.yul\":7010:7151   */\n    tag_64:\n        /* \"#utility.yul\":7059:7063   */\n      0x00\n        /* \"#utility.yul\":7082:7085   */\n      dup2\n        /* \"#utility.yul\":7074:7085   */\n      swap1\n      pop\n        /* \"#utility.yul\":7105:7108   */\n      dup2\n        /* \"#utility.yul\":7102:7103   */\n      0x00\n        /* \"#utility.yul\":7095:7109   */\n      mstore\n        /* \"#utility.yul\":7139:7143   */\n      0x20\n        /* \"#utility.yul\":7136:7137   */\n      0x00\n        /* \"#utility.yul\":7126:7144   */\n      keccak256\n        /* \"#utility.yul\":7118:7144   */\n      swap1\n      pop\n        /* \"#utility.yul\":7010:7151   */\n      swap2\n      swap1\n      pop\n      jump\t// out\n        /* \"#utility.yul\":7157:7250   */\n    tag_65:\n        /* \"#utility.yul\":7194:7200   */\n      0x00\n        /* \"#utility.yul\":7241:7243   */\n      0x20\n        /* \"#utility.yul\":7236:7238   */\n      0x1f\n        /* \"#utility.yul\":7229:7234   */\n      dup4\n        /* \"#utility.yul\":7225:7239   */\n      add\n        /* \"#utility.yul\":7221:7244   */\n      div\n        /* \"#utility.yul\":7211:7244   */\n      swap1\n      pop\n        /* \"#utility.yul\":7157:7250   */\n      swap2\n      swap1\n      pop\n      jump\t// out\n        /* \"#utility.yul\":7256:7363   */\n    tag_66:\n        /* \"#utility.yul\":7300:7308   */\n      0x00\n        /* \"#utility.yul\":7350:7355   */\n      dup3\n        /* \"#utility.yul\":7344:7348   */\n      dup3\n        /* \"#utility.yul\":7340:7356   */\n      shl\n        /* \"#utility.yul\":7319:7356   */\n      swap1\n      pop\n        /* \"#utility.yul\":7256:7363   */\n      swap3\n      swap2\n      pop\n      pop\n      jump\t// out\n        /* \"#utility.yul\":7369:7762   */\n    tag_67:\n        /* \"#utility.yul\":7438:7444   */\n      0x00\n        /* \"#utility.yul\":7488:7489   */\n      0x08\n        /* \"#utility.yul\":7476:7486   */\n      dup4\n        /* \"#utility.yul\":7472:7490   */\n      mul\n        /* \"#utility.yul\":7511:7608   */\n      tag_167\n        /* \"#utility.yul\":7541:7607   */\n      0xffffffffffffffffffffffffffffffffffffffffffffffffffffffffffffffff\n        /* \"#utility.yul\":7530:7539   */\n      dup3\n        /* \"#utility.yul\":7511:7608   */\n      tag_66\n      jump\t// in\n    tag_167:\n        /* \"#utility.yul\":7629:7668   */\n      tag_168\n        /* \"#utility.yul\":7659:7667   */\n      dup7\n        /* \"#utility.yul\":7648:7657   */\n      dup4\n        /* \"#utility.yul\":7629:7668   */\n      tag_66\n      jump\t// in\n    tag_168:\n        /* \"#utility.yul\":7617:7668   */\n      swap6\n      pop\n        /* \"#utility.yul\":7701:7705   */\n      dup1\n        /* \"#utility.yul\":7697:7706   */\n      not\n        /* \"#utility.yul\":7690:7695   */\n      dup5\n        /* \"#utility.yul\":7686:7707   */\n      and\n        /* \"#utility.yul\":7677:7707   */\n      swap4\n      pop\n        /* \"#utility.yul\":7750:7754   */\n      dup1\n        /* \"#utility.yul\":7740:7748   */\n      dup7\n        /* \"#utility.yul\":7736:7755   */\n      and\n        /* \"#utility.yul\":7729:7734   */\n      dup5\n        /* \"#utility.yul\":7726:7756   */\n      or\n        /* \"#utility.yul\":7716:7756   */\n      swap3\n      pop\n        /* \"#utility.yul\":7445:7762   */\n      pop\n      pop\n        /* \"#utility.yul\":7369:7762   */\n      swap4\n      swap3\n      pop\n      pop\n      pop\n      jump\t// out\n        /* \"#utility.yul\":7768:7828   */\n    tag_68:\n        /* \"#utility.yul\":7796:7799   */\n      0x00\n        /* \"#utility.yul\":7817:7822   */\n      dup2\n        /* \"#utility.yul\":7810:7822   */\n      swap1\n      pop\n        /* \"#utility.yul\":7768:7828   */\n      swap2\n      swap1\n      pop\n      jump\t// out\n        /* \"#utility.yul\":7834:7976   */\n    tag_69:\n        /* \"#utility.yul\":7884:7893   */\n      0x00\n        /* \"#utility.yul\":7917:7970   */\n      tag_171\n        /* \"#utility.yul\":7935:7969   */\n      tag_172\n        /* \"#utility.yul\":7944:7968   */\n      tag_173\n        /* \"#utility.yul\":7962:7967   */\n      dup5\n        /* \"#utility.yul\":7944:7968   */\n      tag_44\n      jump\t// in\n    tag_173:\n        /* \"#utility.yul\":7935:7969   */\n      tag_68\n      jump\t// in\n    tag_172:\n        /* \"#utility.yul\":7917:7970   */\n      tag_44\n      jump\t// in\n    tag_171:\n        /* \"#utility.yul\":7904:7970   */\n      swap1\n      pop\n        /* \"#utility.yul\":7834:7976   */\n      swap2\n      swap1\n      pop\n      jump\t// out\n        /* \"#utility.yul\":7982:8057   */\n    tag_70:\n        /* \"#utility.yul\":8025:8028   */\n      0x00\n        /* \"#utility.yul\":8046:8051   */\n      dup2\n        /* \"#utility.yul\":8039:8051   */\n      swap1\n      pop\n        /* \"#utility.yul\":7982:8057   */\n      swap2\n      swap1\n      pop\n      jump\t// out\n        /* \"#utility.yul\":8063:8332   */\n    tag_71:\n        /* \"#utility.yul\":8173:8212   */\n      tag_176\n        /* \"#utility.yul\":8204:8211   */\n      dup4\n        /* \"#utility.yul\":8173:8212   */\n      tag_69\n      jump\t// in\n    tag_176:\n        /* \"#utility.yul\":8234:8325   */\n      tag_177\n        /* \"#utility.yul\":8283:8324   */\n      tag_178\n        /* \"#utility.yul\":8307:8323   */\n      dup3\n        /* \"#utility.yul\":8283:8324   */\n      tag_70\n      jump\t// in\n    tag_178:\n        /* \"#utility.yul\":8275:8281   */\n      dup5\n        /* \"#utility.yul\":8268:8272   */\n      dup5\n        /* \"#utility.yul\":8262:8273   */\n      sload\n        /* \"#utility.yul\":8234:8325   */\n      tag_67\n      jump\t// in\n    tag_177:\n        /* \"#utility.yul\":8228:8232   */\n      dup3\n        /* \"#utility.yul\":8221:8326   */\n      sstore\n        /* \"#utility.yul\":8139:8332   */\n      pop\n        /* \"#utility.yul\":8063:8332   */\n      pop\n      pop\n      pop\n      jump\t// out\n        /* \"#utility.yul\":8338:8411   */\n    tag_72:\n        /* \"#utility.yul\":8383:8386   */\n      0x00\n        /* \"#utility.yul\":8338:8411   */\n      swap1\n      jump\t// out\n        /* \"#utility.yul\":8417:8606   */\n    tag_73:\n        /* \"#utility.yul\":8494:8526   */\n      tag_181\n      tag_72\n      jump\t// in\n    tag_181:\n        /* \"#utility.yul\":8535:8600   */\n      tag_182\n        /* \"#utility.yul\":8593:8599   */\n      dup2\n        /* \"#utility.yul\":8585:8591   */\n      dup5\n        /* \"#utility.yul\":8579:8583   */\n      dup5\n        /* \"#utility.yul\":8535:8600   */\n      tag_71\n      jump\t// in\n    tag_182:\n        /* \"#utility.yul\":8470:8606   */\n      pop\n        /* \"#utility.yul\":8417:8606   */\n      pop\n      pop\n      jump\t// out\n        /* \"#utility.yul\":8612:8798   */\n    tag_74:\n        /* \"#utility.yul\":8672:8792   */\n    tag_184:\n        /* \"#utility.yul\":8689:8692   */\n      dup2\n        /* \"#utility.yul\":8682:8687   */\n      dup2\n        /* \"#utility.yul\":8679:8693   */\n      lt\n        /* \"#utility.yul\":8672:8792   */\n      iszero\n      tag_186\n      jumpi\n        /* \"#utility.yul\":8743:8782   */\n      tag_187\n        /* \"#utility.yul\":8780:8781   */\n      0x00\n        /* \"#utility.yul\":8773:8778   */\n      dup3\n        /* \"#utility.yul\":8743:8782   */\n      tag_73\n      jump\t// in\n    tag_187:\n        /* \"#utility.yul\":8716:8717   */\n      0x01\n        /* \"#utility.yul\":8709:8714   */\n      dup2\n        /* \"#utility.yul\":8705:8718   */\n      add\n        /* \"#utility.yul\":8696:8718   */\n      swap1\n      pop\n        /* \"#utility.yul\":8672:8792   */\n      jump(tag_184)\n    tag_186:\n        /* \"#utility.yul\":8612:8798   */\n      pop\n      pop\n      jump\t// out\n        /* \"#utility.yul\":8804:9347   */\n    tag_75:\n        /* \"#utility.yul\":8905:8907   */\n      0x1f\n        /* \"#utility.yul\":8900:8903   */\n      dup3\n        /* \"#utility.yul\":8897:8908   */\n      gt\n        /* \"#utility.yul\":8894:9340   */\n      iszero\n      tag_189\n      jumpi\n        /* \"#utility.yul\":8939:8977   */\n      tag_190\n        /* \"#utility.yul\":8971:8976   */\n      dup2\n        /* \"#utility.yul\":8939:8977   */\n      tag_64\n      jump\t// in\n    tag_190:\n        /* \"#utility.yul\":9023:9052   */\n      tag_191\n        /* \"#utility.yul\":9041:9051   */\n      dup5\n        /* \"#utility.yul\":9023:9052   */\n      tag_65\n      jump\t// in\n    tag_191:\n        /* \"#utility.yul\":9013:9021   */\n      dup2\n        /* \"#utility.yul\":9009:9053   */\n      add\n        /* \"#utility.yul\":9206:9208   */\n      0x20\n        /* \"#utility.yul\":9194:9204   */\n      dup6\n        /* \"#utility.yul\":9191:9209   */\n      lt\n        /* \"#utility.yul\":9188:9237   */\n      iszero\n      tag_192\n      jumpi\n        /* \"#utility.yul\":9227:9235   */\n      dup2\n        /* \"#utility.yul\":9212:9235   */\n      swap1\n      pop\n        /* \"#utility.yul\":9188:9237   */\n    tag_192:\n        /* \"#utility.yul\":9250:9330   */\n      tag_193\n        /* \"#utility.yul\":9306:9328   */\n      tag_194\n        /* \"#utility.yul\":9324:9327   */\n      dup6\n        /* \"#utility.yul\":9306:9328   */\n      tag_65\n      jump\t// in\n    tag_194:\n        /* \"#utility.yul\":9296:9304   */\n      dup4\n        /* \"#utility.yul\":9292:9329   */\n      add\n        /* \"#utility.yul\":9279:9290   */\n      dup3\n        /* \"#utility.yul\":9250:9330   */\n      tag_74\n      jump\t// in\n    tag_193:\n        /* \"#utility.yul\":8909:9340   */\n      pop\n      pop\n        /* \"#utility.yul\":8894:9340   */\n    tag_189:\n        /* \"#utility.yul\":8804:9347   */\n      pop\n      pop\n      pop\n      jump\t// out\n        /* \"#utility.yul\":9353:9470   */\n    tag_76:\n        /* \"#utility.yul\":9407:9415   */\n      0x00\n        /* \"#utility.yul\":9457:9462   */\n      dup3\n        /* \"#utility.yul\":9451:9455   */\n      dup3\n        /* \"#utility.yul\":9447:9463   */\n      shr\n        /* \"#utility.yul\":9426:9463   */\n      swap1\n      pop\n        /* \"#utility.yul\":9353:9470   */\n      swap3\n      swap2\n      pop\n      pop\n      jump\t// out\n        /* \"#utility.yul\":9476:9645   */\n    tag_77:\n        /* \"#utility.yul\":9520:9526   */\n      0x00\n        /* \"#utility.yul\":9553:9604   */\n      tag_197\n        /* \"#utility.yul\":9601:9602   */\n      0x00\n        /* \"#utility.yul\":9597:9603   */\n      not\n        /* \"#utility.yul\":9589:9594   */\n      dup5\n        /* \"#utility.yul\":9586:9587   */\n      0x08\n        /* \"#utility.yul\":9582:9595   */\n      mul\n        /* \"#utility.yul\":9553:9604   */\n      tag_76\n      jump\t// in\n    tag_197:\n        /* \"#utility.yul\":9549:9605   */\n      not\n        /* \"#utility.yul\":9634:9638   */\n      dup1\n        /* \"#utility.yul\":9628:9632   */\n      dup4\n        /* \"#utility.yul\":9624:9639   */\n      and\n        /* \"#utility.yul\":9614:9639   */\n      swap2\n      pop\n        /* \"#utility.yul\":9527:9645   */\n      pop\n        /* \"#utility.yul\":9476:9645   */\n      swap3\n      swap2\n      pop\n      pop\n      jump\t// out\n        /* \"#utility.yul\":9650:9945   */\n    tag_78:\n        /* \"#utility.yul\":9726:9730   */\n      0x00\n        /* \"#utility.yul\":9872:9901   */\n      tag_199\n        /* \"#utility.yul\":9897:9900   */\n      dup4\n        /* \"#utility.yul\":9891:9895   */\n      dup4\n        /* \"#utility.yul\":9872:9901   */\n      tag_77\n      jump\t// in\n    tag_199:\n        /* \"#utility.yul\":9864:9901   */\n      swap2\n      pop\n        /* \"#utility.yul\":9934:9937   */\n      dup3\n        /* \"#utility.yul\":9931:9932   */\n      0x02\n        /* \"#utility.yul\":9927:9938   */\n      mul\n        /* \"#utility.yul\":9921:9925   */\n      dup3\n        /* \"#utility.yul\":9918:9939   */\n      or\n        /* \"#utility.yul\":9910:9939   */\n      swap1\n      pop\n        /* \"#utility.yul\":9650:9945   */\n      swap3\n      swap2\n      pop\n      pop\n      jump\t// out\n        /* \"#utility.yul\":9950:11345   */\n    tag_31:\n        /* \"#utility.yul\":10067:10104   */\n      tag_201\n        /* \"#utility.yul\":10100:10103   */\n      dup3\n        /* \"#utility.yul\":10067:10104   */\n      tag_58\n      jump\t// in\n    tag_201:\n        /* \"#utility.yul\":10169:10187   */\n      0xffffffffffffffff\n        /* \"#utility.yul\":10161:10167   */\n      dup2\n        /* \"#utility.yul\":10158:10188   */\n      gt\n        /* \"#utility.yul\":10155:10211   */\n      iszero\n      tag_202\n      jumpi\n        /* \"#utility.yul\":10191:10209   */\n      tag_203\n      tag_50\n      jump\t// in\n    tag_203:\n        /* \"#utility.yul\":10155:10211   */\n    tag_202:\n        /* \"#utility.yul\":10235:10273   */\n      tag_204\n        /* \"#utility.yul\":10267:10271   */\n      dup3\n        /* \"#utility.yul\":10261:10272   */\n      sload\n        /* \"#utility.yul\":10235:10273   */\n      tag_36\n      jump\t// in\n    tag_204:\n        /* \"#utility.yul\":10320:10387   */\n      tag_205\n        /* \"#utility.yul\":10380:10386   */\n      dup3\n        /* \"#utility.yul\":10372:10378   */\n      dup3\n        /* \"#utility.yul\":10366:10370   */\n      dup6\n        /* \"#utility.yul\":10320:10387   */\n      tag_75\n      jump\t// in\n    tag_205:\n        /* \"#utility.yul\":10414:10415   */\n      0x00\n        /* \"#utility.yul\":10438:10442   */\n      0x20\n        /* \"#utility.yul\":10425:10442   */\n      swap1\n      pop\n        /* \"#utility.yul\":10470:10472   */\n      0x1f\n        /* \"#utility.yul\":10462:10468   */\n      dup4\n        /* \"#utility.yul\":10459:10473   */\n      gt\n        /* \"#utility.yul\":10487:10488   */\n      0x01\n        /* \"#utility.yul\":10482:11100   */\n      dup2\n      eq\n      tag_207\n      jumpi\n        /* \"#utility.yul\":11144:11145   */\n      0x00\n        /* \"#utility.yul\":11161:11167   */\n      dup5\n        /* \"#utility.yul\":11158:11235   */\n      iszero\n      tag_208\n      jumpi\n        /* \"#utility.yul\":11210:11219   */\n      dup3\n        /* \"#utility.yul\":11205:11208   */\n      dup8\n        /* \"#utility.yul\":11201:11220   */\n      add\n        /* \"#utility.yul\":11195:11221   */\n      mload\n        /* \"#utility.yul\":11186:11221   */\n      swap1\n      pop\n        /* \"#utility.yul\":11158:11235   */\n    tag_208:\n        /* \"#utility.yul\":11261:11328   */\n      tag_209\n        /* \"#utility.yul\":11321:11327   */\n      dup6\n        /* \"#utility.yul\":11314:11319   */\n      dup3\n        /* \"#utility.yul\":11261:11328   */\n      tag_78\n      jump\t// in\n    tag_209:\n        /* \"#utility.yul\":11255:11259   */\n      dup7\n        /* \"#utility.yul\":11248:11329   */\n      sstore\n        /* \"#utility.yul\":11117:11339   */\n      pop\n        /* \"#utility.yul\":10452:11339   */\n      jump(tag_206)\n        /* \"#utility.yul\":10482:11100   */\n    tag_207:\n        /* \"#utility.yul\":10534:10538   */\n      0x1f\n        /* \"#utility.yul\":10530:10539   */\n      not\n        /* \"#utility.yul\":10522:10528   */\n      dup5\n        /* \"#utility.yul\":10518:10540   */\n      and\n        /* \"#utility.yul\":10568:10605   */\n      tag_210\n        /* \"#utility.yul\":10600:10604   */\n      dup7\n        /* \"#utility.yul\":10568:10605   */\n      tag_64\n      jump\t// in\n    tag_210:\n        /* \"#utility.yul\":10627:10628   */\n      0x00\n        /* \"#utility.yul\":10641:10849   */\n    tag_211:\n        /* \"#utility.yul\":10655:10662   */\n      dup3\n        /* \"#utility.yul\":10652:10653   */\n      dup2\n        /* \"#utility.yul\":10649:10663   */\n      lt\n        /* \"#utility.yul\":10641:10849   */\n      iszero\n      tag_213\n      jumpi\n        /* \"#utility.yul\":10734:10743   */\n      dup5\n        /* \"#utility.yul\":10729:10732   */\n      dup10\n        /* \"#utility.yul\":10725:10744   */\n      add\n        /* \"#utility.yul\":10719:10745   */\n      mload\n        /* \"#utility.yul\":10711:10717   */\n      dup3\n        /* \"#utility.yul\":10704:10746   */\n      sstore\n        /* \"#utility.yul\":10785:10786   */\n      0x01\n        /* \"#utility.yul\":10777:10783   */\n      dup3\n        /* \"#utility.yul\":10773:10787   */\n      add\n        /* \"#utility.yul\":10763:10787   */\n      swap2\n      pop\n        /* \"#utility.yul\":10832:10834   */\n      0x20\n        /* \"#utility.yul\":10821:10830   */\n      dup6\n        /* \"#utility.yul\":10817:10835   */\n      add\n        /* \"#utility.yul\":10804:10835   */\n      swap5\n      pop\n        /* \"#utility.yul\":10678:10682   */\n      0x20\n        /* \"#utility.yul\":10675:10676   */\n      dup2\n        /* \"#utility.yul\":10671:10683   */\n      add\n        /* \"#utility.yul\":10666:10683   */\n      swap1\n      pop\n        /* \"#utility.yul\":10641:10849   */\n      jump(tag_211)\n    tag_213:\n        /* \"#utility.yul\":10877:10883   */\n      dup7\n        /* \"#utility.yul\":10868:10875   */\n      dup4\n        /* \"#utility.yul\":10865:10884   */\n      lt\n        /* \"#utility.yul\":10862:11041   */\n      iszero\n      tag_214\n      jumpi\n        /* \"#utility.yul\":10935:10944   */\n      dup5\n        /* \"#utility.yul\":10930:10933   */\n      dup10\n        /* \"#utility.yul\":10926:10945   */\n      add\n        /* \"#utility.yul\":10920:10946   */\n      mload\n        /* \"#utility.yul\":10978:11026   */\n      tag_215\n        /* \"#utility.yul\":11020:11024   */\n      0x1f\n        /* \"#utility.yul\":11012:11018   */\n      dup10\n        /* \"#utility.yul\":11008:11025   */\n      and\n        /* \"#utility.yul\":10997:11006   */\n      dup3\n        /* \"#utility.yul\":10978:11026   */\n      tag_77\n      jump\t// in\n    tag_215:\n        /* \"#utility.yul\":10970:10976   */\n      dup4\n        /* \"#utility.yul\":10963:11027   */\n      sstore\n        /* \"#utility.yul\":10885:11041   */\n      pop\n        /* \"#utility.yul\":10862:11041   */\n    tag_214:\n        /* \"#utility.yul\":11087:11088   */\n      0x01\n        /* \"#utility.yul\":11083:11084   */\n      0x02\n        /* \"#utility.yul\":11075:11081   */\n      dup9\n        /* \"#utility.yul\":11071:11085   */\n      mul\n        /* \"#utility.yul\":11067:11089   */\n      add\n        /* \"#utility.yul\":11061:11065   */\n      dup9\n        /* \"#utility.yul\":11054:11090   */\n      sstore\n        /* \"#utility.yul\":10489:11100   */\n      pop\n      pop\n      pop\n        /* \"#utility.yul\":10452:11339   */\n    tag_206:\n      pop\n        /* \"#utility.yul\":10042:11345   */\n      pop\n      pop\n      pop\n        /* \"#utility.yul\":9950:11345   */\n      pop\n      pop\n      jump\t// out\n        /* \"#utility.yul\":11351:11499   */\n    tag_79:\n        /* \"#utility.yul\":11453:11464   */\n      0x00\n        /* \"#utility.yul\":11490:11493   */\n      dup2\n        /* \"#utility.yul\":11475:11493   */\n      swap1\n      pop\n        /* \"#utility.yul\":11351:11499   */\n      swap3\n      swap2\n      pop\n      pop\n      jump\t// out\n        /* \"#utility.yul\":11505:11895   */\n    tag_80:\n        /* \"#utility.yul\":11611:11614   */\n      0x00\n        /* \"#utility.yul\":11639:11678   */\n      tag_218\n        /* \"#utility.yul\":11672:11677   */\n      dup3\n        /* \"#utility.yul\":11639:11678   */\n      tag_58\n      jump\t// in\n    tag_218:\n        /* \"#utility.yul\":11694:11783   */\n      tag_219\n        /* \"#utility.yul\":11776:11782   */\n      dup2\n        /* \"#utility.yul\":11771:11774   */\n      dup6\n        /* \"#utility.yul\":11694:11783   */\n      tag_79\n      jump\t// in\n    tag_219:\n        /* \"#utility.yul\":11687:11783   */\n      swap4\n      pop\n        /* \"#utility.yul\":11792:11857   */\n      tag_220\n        /* \"#utility.yul\":11850:11856   */\n      dup2\n        /* \"#utility.yul\":11845:11848   */\n      dup6\n        /* \"#utility.yul\":11838:11842   */\n      0x20\n        /* \"#utility.yul\":11831:11836   */\n      dup7\n        /* \"#utility.yul\":11827:11843   */\n      add\n        /* \"#utility.yul\":11792:11857   */\n      tag_60\n      jump\t// in\n    tag_220:\n        /* \"#utility.yul\":11882:11888   */\n      dup1\n        /* \"#utility.yul\":11877:11880   */\n      dup5\n        /* \"#utility.yul\":11873:11889   */\n      add\n        /* \"#utility.yul\":11866:11889   */\n      swap2\n      pop\n        /* \"#utility.yul\":11615:11895   */\n      pop\n        /* \"#utility.yul\":11505:11895   */\n      swap3\n      swap2\n      pop\n      pop\n      jump\t// out\n        /* \"#utility.yul\":11901:12176   */\n    tag_33:\n        /* \"#utility.yul\":12033:12036   */\n      0x00\n        /* \"#utility.yul\":12055:12150   */\n      tag_222\n        /* \"#utility.yul\":12146:12149   */\n      dup3\n        /* \"#utility.yul\":12137:12143   */\n      dup5\n        /* \"#utility.yul\":12055:12150   */\n      tag_80\n      jump\t// in\n    tag_222:\n        /* \"#utility.yul\":12048:12150   */\n      swap2\n      pop\n        /* \"#utility.yul\":12167:12170   */\n      dup2\n        /* \"#utility.yul\":12160:12170   */\n      swap1\n      pop\n        /* \"#utility.yul\":11901:12176   */\n      swap3\n      swap2\n      pop\n      pop\n      jump\t// out\n\n    auxdata: 0xa2646970667358221220df9654b813beb6bf11f611c51e01bc6a7b3ceb215db80cfe474a9027c98d60ba64736f6c63430008160033\n}\n",
				"bytecode": {
					"linkReferences": {},
					"object": "608060405234801561000f575f80fd5b5061091f8061001d5f395ff3fe608060405234801561000f575f80fd5b506004361061004a575f3560e01c80630eb4f9021461004e5780631ef455c71461006a5780633c8df65214610086578063daed8f76146100a4575b5f80fd5b61006860048036038101906100639190610298565b6100d5565b005b610084600480360381019061007f91906103ff565b6100eb565b005b61008e610190565b60405161009b9190610468565b60405180910390f35b6100be60048036038101906100b99190610481565b610196565b6040516100cc929190610542565b60405180910390f35b6005816100e2919061059d565b60018190555050565b5f60405180604001604052808481526020018381525090505f81908060018154018082558091505060019003905f5260205f2090600202015f909190919091505f820151815f01908161013e91906107ca565b506020820151816001015550508060028460405161015c91906108d3565b90815260200160405180910390205f820151815f01908161017d91906107ca565b5060208201518160010155905050505050565b60015481565b6002818051602081018201805184825260208301602085012081835280955050505050505f91509050805f0180546101cd906105fd565b80601f01602080910402602001604051908101604052809291908181526020018280546101f9906105fd565b80156102445780601f1061021b57610100808354040283529160200191610244565b820191905f5260205f20905b81548152906001019060200180831161022757829003601f168201915b5050505050908060010154905082565b5f604051905090565b5f80fd5b5f80fd5b5f819050919050565b61027781610265565b8114610281575f80fd5b50565b5f813590506102928161026e565b92915050565b5f602082840312156102ad576102ac61025d565b5b5f6102ba84828501610284565b91505092915050565b5f80fd5b5f80fd5b5f601f19601f8301169050919050565b7f4e487b71000000000000000000000000000000000000000000000000000000005f52604160045260245ffd5b610311826102cb565b810181811067ffffffffffffffff821117156103305761032f6102db565b5b80604052505050565b5f610342610254565b905061034e8282610308565b919050565b5f67ffffffffffffffff82111561036d5761036c6102db565b5b610376826102cb565b9050602081019050919050565b828183375f83830152505050565b5f6103a361039e84610353565b610339565b9050828152602081018484840111156103bf576103be6102c7565b5b6103ca848285610383565b509392505050565b5f82601f8301126103e6576103e56102c3565b5b81356103f6848260208601610391565b91505092915050565b5f80604083850312156104155761041461025d565b5b5f83013567ffffffffffffffff81111561043257610431610261565b5b61043e858286016103d2565b925050602061044f85828601610284565b9150509250929050565b61046281610265565b82525050565b5f60208201905061047b5f830184610459565b92915050565b5f602082840312156104965761049561025d565b5b5f82013567ffffffffffffffff8111156104b3576104b2610261565b5b6104bf848285016103d2565b91505092915050565b5f81519050919050565b5f82825260208201905092915050565b5f5b838110156104ff5780820151818401526020810190506104e4565b5f8484015250505050565b5f610514826104c8565b61051e81856104d2565b935061052e8185602086016104e2565b610537816102cb565b840191505092915050565b5f6040820190508181035f83015261055a818561050a565b90506105696020830184610459565b9392505050565b7f4e487b71000000000000000000000000000000000000000000000000000000005f52601160045260245ffd5b5f6105a782610265565b91506105b283610265565b92508282019050808211156105ca576105c9610570565b5b92915050565b7f4e487b71000000000000000000000000000000000000000000000000000000005f52602260045260245ffd5b5f600282049050600182168061061457607f821691505b602082108103610627576106266105d0565b5b50919050565b5f819050815f5260205f209050919050565b5f6020601f8301049050919050565b5f82821b905092915050565b5f600883026106897fffffffffffffffffffffffffffffffffffffffffffffffffffffffffffffffff8261064e565b610693868361064e565b95508019841693508086168417925050509392505050565b5f819050919050565b5f6106ce6106c96106c484610265565b6106ab565b610265565b9050919050565b5f819050919050565b6106e7836106b4565b6106fb6106f3826106d5565b84845461065a565b825550505050565b5f90565b61070f610703565b61071a8184846106de565b505050565b5b8181101561073d576107325f82610707565b600181019050610720565b5050565b601f821115610782576107538161062d565b61075c8461063f565b8101602085101561076b578190505b61077f6107778561063f565b83018261071f565b50505b505050565b5f82821c905092915050565b5f6107a25f1984600802610787565b1980831691505092915050565b5f6107ba8383610793565b9150826002028217905092915050565b6107d3826104c8565b67ffffffffffffffff8111156107ec576107eb6102db565b5b6107f682546105fd565b610801828285610741565b5f60209050601f831160018114610832575f8415610820578287015190505b61082a85826107af565b865550610891565b601f1984166108408661062d565b5f5b8281101561086757848901518255600182019150602085019450602081019050610842565b868310156108845784890151610880601f891682610793565b8355505b6001600288020188555050505b505050505050565b5f81905092915050565b5f6108ad826104c8565b6108b78185610899565b93506108c78185602086016104e2565b80840191505092915050565b5f6108de82846108a3565b91508190509291505056fea2646970667358221220df9654b813beb6bf11f611c51e01bc6a7b3ceb215db80cfe474a9027c98d60ba64736f6c63430008160033",
					"opcodes": "PUSH1 0x80 PUSH1 0x40 MSTORE CALLVALUE DUP1 ISZERO PUSH2 0xF JUMPI PUSH0 DUP1 REVERT JUMPDEST POP PUSH2 0x91F DUP1 PUSH2 0x1D PUSH0 CODECOPY PUSH0 RETURN INVALID PUSH1 0x80 PUSH1 0x40 MSTORE CALLVALUE DUP1 ISZERO PUSH2 0xF JUMPI PUSH0 DUP1 REVERT JUMPDEST POP PUSH1 0x4 CALLDATASIZE LT PUSH2 0x4A JUMPI PUSH0 CALLDATALOAD PUSH1 0xE0 SHR DUP1 PUSH4 0xEB4F902 EQ PUSH2 0x4E JUMPI DUP1 PUSH4 0x1EF455C7 EQ PUSH2 0x6A JUMPI DUP1 PUSH4 0x3C8DF652 EQ PUSH2 0x86 JUMPI DUP1 PUSH4 0xDAED8F76 EQ PUSH2 0xA4 JUMPI JUMPDEST PUSH0 DUP1 REVERT JUMPDEST PUSH2 0x68 PUSH1 0x4 DUP1 CALLDATASIZE SUB DUP2 ADD SWAP1 PUSH2 0x63 SWAP2 SWAP1 PUSH2 0x298 JUMP JUMPDEST PUSH2 0xD5 JUMP JUMPDEST STOP JUMPDEST PUSH2 0x84 PUSH1 0x4 DUP1 CALLDATASIZE SUB DUP2 ADD SWAP1 PUSH2 0x7F SWAP2 SWAP1 PUSH2 0x3FF JUMP JUMPDEST PUSH2 0xEB JUMP JUMPDEST STOP JUMPDEST PUSH2 0x8E PUSH2 0x190 JUMP JUMPDEST PUSH1 0x40 MLOAD PUSH2 0x9B SWAP2 SWAP1 PUSH2 0x468 JUMP JUMPDEST PUSH1 0x40 MLOAD DUP1 SWAP2 SUB SWAP1 RETURN JUMPDEST PUSH2 0xBE PUSH1 0x4 DUP1 CALLDATASIZE SUB DUP2 ADD SWAP1 PUSH2 0xB9 SWAP2 SWAP1 PUSH2 0x481 JUMP JUMPDEST PUSH2 0x196 JUMP JUMPDEST PUSH1 0x40 MLOAD PUSH2 0xCC SWAP3 SWAP2 SWAP1 PUSH2 0x542 JUMP JUMPDEST PUSH1 0x40 MLOAD DUP1 SWAP2 SUB SWAP1 RETURN JUMPDEST PUSH1 0x5 DUP2 PUSH2 0xE2 SWAP2 SWAP1 PUSH2 0x59D JUMP JUMPDEST PUSH1 0x1 DUP2 SWAP1 SSTORE POP POP JUMP JUMPDEST PUSH0 PUSH1 0x40 MLOAD DUP1 PUSH1 0x40 ADD PUSH1 0x40 MSTORE DUP1 DUP5 DUP2 MSTORE PUSH1 0x20 ADD DUP4 DUP2 MSTORE POP SWAP1 POP PUSH0 DUP2 SWAP1 DUP1 PUSH1 0x1 DUP2 SLOAD ADD DUP1 DUP3 SSTORE DUP1 SWAP2 POP POP PUSH1 0x1 SWAP1 SUB SWAP1 PUSH0 MSTORE PUSH1 0x20 PUSH0 KECCAK256 SWAP1 PUSH1 0x2 MUL ADD PUSH0 SWAP1 SWAP2 SWAP1 SWAP2 SWAP1 SWAP2 POP PUSH0 DUP3 ADD MLOAD DUP2 PUSH0 ADD SWAP1 DUP2 PUSH2 0x13E SWAP2 SWAP1 PUSH2 0x7CA JUMP JUMPDEST POP PUSH1 0x20 DUP3 ADD MLOAD DUP2 PUSH1 0x1 ADD SSTORE POP POP DUP1 PUSH1 0x2 DUP5 PUSH1 0x40 MLOAD PUSH2 0x15C SWAP2 SWAP1 PUSH2 0x8D3 JUMP JUMPDEST SWAP1 DUP2 MSTORE PUSH1 0x20 ADD PUSH1 0x40 MLOAD DUP1 SWAP2 SUB SWAP1 KECCAK256 PUSH0 DUP3 ADD MLOAD DUP2 PUSH0 ADD SWAP1 DUP2 PUSH2 0x17D SWAP2 SWAP1 PUSH2 0x7CA JUMP JUMPDEST POP PUSH1 0x20 DUP3 ADD MLOAD DUP2 PUSH1 0x1 ADD SSTORE SWAP1 POP POP POP POP POP JUMP JUMPDEST PUSH1 0x1 SLOAD DUP2 JUMP JUMPDEST PUSH1 0x2 DUP2 DUP1 MLOAD PUSH1 0x20 DUP2 ADD DUP3 ADD DUP1 MLOAD DUP5 DUP3 MSTORE PUSH1 0x20 DUP4 ADD PUSH1 0x20 DUP6 ADD KECCAK256 DUP2 DUP4 MSTORE DUP1 SWAP6 POP POP POP POP POP POP PUSH0 SWAP2 POP SWAP1 POP DUP1 PUSH0 ADD DUP1 SLOAD PUSH2 0x1CD SWAP1 PUSH2 0x5FD JUMP JUMPDEST DUP1 PUSH1 0x1F ADD PUSH1 0x20 DUP1 SWAP2 DIV MUL PUSH1 0x20 ADD PUSH1 0x40 MLOAD SWAP1 DUP2 ADD PUSH1 0x40 MSTORE DUP1 SWAP3 SWAP2 SWAP1 DUP2 DUP2 MSTORE PUSH1 0x20 ADD DUP3 DUP1 SLOAD PUSH2 0x1F9 SWAP1 PUSH2 0x5FD JUMP JUMPDEST DUP1 ISZERO PUSH2 0x244 JUMPI DUP1 PUSH1 0x1F LT PUSH2 0x21B JUMPI PUSH2 0x100 DUP1 DUP4 SLOAD DIV MUL DUP4 MSTORE SWAP2 PUSH1 0x20 ADD SWAP2 PUSH2 0x244 JUMP JUMPDEST DUP3 ADD SWAP2 SWAP1 PUSH0 MSTORE PUSH1 0x20 PUSH0 KECCAK256 SWAP1 JUMPDEST DUP2 SLOAD DUP2 MSTORE SWAP1 PUSH1 0x1 ADD SWAP1 PUSH1 0x20 ADD DUP1 DUP4 GT PUSH2 0x227 JUMPI DUP3 SWAP1 SUB PUSH1 0x1F AND DUP3 ADD SWAP2 JUMPDEST POP POP POP POP POP SWAP1 DUP1 PUSH1 0x1 ADD SLOAD SWAP1 POP DUP3 JUMP JUMPDEST PUSH0 PUSH1 0x40 MLOAD SWAP1 POP SWAP1 JUMP JUMPDEST PUSH0 DUP1 REVERT JUMPDEST PUSH0 DUP1 REVERT JUMPDEST PUSH0 DUP2 SWAP1 POP SWAP2 SWAP1 POP JUMP JUMPDEST PUSH2 0x277 DUP2 PUSH2 0x265 JUMP JUMPDEST DUP2 EQ PUSH2 0x281 JUMPI PUSH0 DUP1 REVERT JUMPDEST POP JUMP JUMPDEST PUSH0 DUP2 CALLDATALOAD SWAP1 POP PUSH2 0x292 DUP2 PUSH2 0x26E JUMP JUMPDEST SWAP3 SWAP2 POP POP JUMP JUMPDEST PUSH0 PUSH1 0x20 DUP3 DUP5 SUB SLT ISZERO PUSH2 0x2AD JUMPI PUSH2 0x2AC PUSH2 0x25D JUMP JUMPDEST JUMPDEST PUSH0 PUSH2 0x2BA DUP5 DUP3 DUP6 ADD PUSH2 0x284 JUMP JUMPDEST SWAP2 POP POP SWAP3 SWAP2 POP POP JUMP JUMPDEST PUSH0 DUP1 REVERT JUMPDEST PUSH0 DUP1 REVERT JUMPDEST PUSH0 PUSH1 0x1F NOT PUSH1 0x1F DUP4 ADD AND SWAP1 POP SWAP2 SWAP1 POP JUMP JUMPDEST PUSH32 0x4E487B7100000000000000000000000000000000000000000000000000000000 PUSH0 MSTORE PUSH1 0x41 PUSH1 0x4 MSTORE PUSH1 0x24 PUSH0 REVERT JUMPDEST PUSH2 0x311 DUP3 PUSH2 0x2CB JUMP JUMPDEST DUP2 ADD DUP2 DUP2 LT PUSH8 0xFFFFFFFFFFFFFFFF DUP3 GT OR ISZERO PUSH2 0x330 JUMPI PUSH2 0x32F PUSH2 0x2DB JUMP JUMPDEST JUMPDEST DUP1 PUSH1 0x40 MSTORE POP POP POP JUMP JUMPDEST PUSH0 PUSH2 0x342 PUSH2 0x254 JUMP JUMPDEST SWAP1 POP PUSH2 0x34E DUP3 DUP3 PUSH2 0x308 JUMP JUMPDEST SWAP2 SWAP1 POP JUMP JUMPDEST PUSH0 PUSH8 0xFFFFFFFFFFFFFFFF DUP3 GT ISZERO PUSH2 0x36D JUMPI PUSH2 0x36C PUSH2 0x2DB JUMP JUMPDEST JUMPDEST PUSH2 0x376 DUP3 PUSH2 0x2CB JUMP JUMPDEST SWAP1 POP PUSH1 0x20 DUP2 ADD SWAP1 POP SWAP2 SWAP1 POP JUMP JUMPDEST DUP3 DUP2 DUP4 CALLDATACOPY PUSH0 DUP4 DUP4 ADD MSTORE POP POP POP JUMP JUMPDEST PUSH0 PUSH2 0x3A3 PUSH2 0x39E DUP5 PUSH2 0x353 JUMP JUMPDEST PUSH2 0x339 JUMP JUMPDEST SWAP1 POP DUP3 DUP2 MSTORE PUSH1 0x20 DUP2 ADD DUP5 DUP5 DUP5 ADD GT ISZERO PUSH2 0x3BF JUMPI PUSH2 0x3BE PUSH2 0x2C7 JUMP JUMPDEST JUMPDEST PUSH2 0x3CA DUP5 DUP3 DUP6 PUSH2 0x383 JUMP JUMPDEST POP SWAP4 SWAP3 POP POP POP JUMP JUMPDEST PUSH0 DUP3 PUSH1 0x1F DUP4 ADD SLT PUSH2 0x3E6 JUMPI PUSH2 0x3E5 PUSH2 0x2C3 JUMP JUMPDEST JUMPDEST DUP2 CALLDATALOAD PUSH2 0x3F6 DUP5 DUP3 PUSH1 0x20 DUP7 ADD PUSH2 0x391 JUMP JUMPDEST SWAP2 POP POP SWAP3 SWAP2 POP POP JUMP JUMPDEST PUSH0 DUP1 PUSH1 0x40 DUP4 DUP6 SUB SLT ISZERO PUSH2 0x415 JUMPI PUSH2 0x414 PUSH2 0x25D JUMP JUMPDEST JUMPDEST PUSH0 DUP4 ADD CALLDATALOAD PUSH8 0xFFFFFFFFFFFFFFFF DUP2 GT ISZERO PUSH2 0x432 JUMPI PUSH2 0x431 PUSH2 0x261 JUMP JUMPDEST JUMPDEST PUSH2 0x43E DUP6 DUP3 DUP7 ADD PUSH2 0x3D2 JUMP JUMPDEST SWAP3 POP POP PUSH1 0x20 PUSH2 0x44F DUP6 DUP3 DUP7 ADD PUSH2 0x284 JUMP JUMPDEST SWAP2 POP POP SWAP3 POP SWAP3 SWAP1 POP JUMP JUMPDEST PUSH2 0x462 DUP2 PUSH2 0x265 JUMP JUMPDEST DUP3 MSTORE POP POP JUMP JUMPDEST PUSH0 PUSH1 0x20 DUP3 ADD SWAP1 POP PUSH2 0x47B PUSH0 DUP4 ADD DUP5 PUSH2 0x459 JUMP JUMPDEST SWAP3 SWAP2 POP POP JUMP JUMPDEST PUSH0 PUSH1 0x20 DUP3 DUP5 SUB SLT ISZERO PUSH2 0x496 JUMPI PUSH2 0x495 PUSH2 0x25D JUMP JUMPDEST JUMPDEST PUSH0 DUP3 ADD CALLDATALOAD PUSH8 0xFFFFFFFFFFFFFFFF DUP2 GT ISZERO PUSH2 0x4B3 JUMPI PUSH2 0x4B2 PUSH2 0x261 JUMP JUMPDEST JUMPDEST PUSH2 0x4BF DUP5 DUP3 DUP6 ADD PUSH2 0x3D2 JUMP JUMPDEST SWAP2 POP POP SWAP3 SWAP2 POP POP JUMP JUMPDEST PUSH0 DUP2 MLOAD SWAP1 POP SWAP2 SWAP1 POP JUMP JUMPDEST PUSH0 DUP3 DUP3 MSTORE PUSH1 0x20 DUP3 ADD SWAP1 POP SWAP3 SWAP2 POP POP JUMP JUMPDEST PUSH0 JUMPDEST DUP4 DUP2 LT ISZERO PUSH2 0x4FF JUMPI DUP1 DUP3 ADD MLOAD DUP2 DUP5 ADD MSTORE PUSH1 0x20 DUP2 ADD SWAP1 POP PUSH2 0x4E4 JUMP JUMPDEST PUSH0 DUP5 DUP5 ADD MSTORE POP POP POP POP JUMP JUMPDEST PUSH0 PUSH2 0x514 DUP3 PUSH2 0x4C8 JUMP JUMPDEST PUSH2 0x51E DUP2 DUP6 PUSH2 0x4D2 JUMP JUMPDEST SWAP4 POP PUSH2 0x52E DUP2 DUP6 PUSH1 0x20 DUP7 ADD PUSH2 0x4E2 JUMP JUMPDEST PUSH2 0x537 DUP2 PUSH2 0x2CB JUMP JUMPDEST DUP5 ADD SWAP2 POP POP SWAP3 SWAP2 POP POP JUMP JUMPDEST PUSH0 PUSH1 0x40 DUP3 ADD SWAP1 POP DUP2 DUP2 SUB PUSH0 DUP4 ADD MSTORE PUSH2 0x55A DUP2 DUP6 PUSH2 0x50A JUMP JUMPDEST SWAP1 POP PUSH2 0x569 PUSH1 0x20 DUP4 ADD DUP5 PUSH2 0x459 JUMP JUMPDEST SWAP4 SWAP3 POP POP POP JUMP JUMPDEST PUSH32 0x4E487B7100000000000000000000000000000000000000000000000000000000 PUSH0 MSTORE PUSH1 0x11 PUSH1 0x4 MSTORE PUSH1 0x24 PUSH0 REVERT JUMPDEST PUSH0 PUSH2 0x5A7 DUP3 PUSH2 0x265 JUMP JUMPDEST SWAP2 POP PUSH2 0x5B2 DUP4 PUSH2 0x265 JUMP JUMPDEST SWAP3 POP DUP3 DUP3 ADD SWAP1 POP DUP1 DUP3 GT ISZERO PUSH2 0x5CA JUMPI PUSH2 0x5C9 PUSH2 0x570 JUMP JUMPDEST JUMPDEST SWAP3 SWAP2 POP POP JUMP JUMPDEST PUSH32 0x4E487B7100000000000000000000000000000000000000000000000000000000 PUSH0 MSTORE PUSH1 0x22 PUSH1 0x4 MSTORE PUSH1 0x24 PUSH0 REVERT JUMPDEST PUSH0 PUSH1 0x2 DUP3 DIV SWAP1 POP PUSH1 0x1 DUP3 AND DUP1 PUSH2 0x614 JUMPI PUSH1 0x7F DUP3 AND SWAP2 POP JUMPDEST PUSH1 0x20 DUP3 LT DUP2 SUB PUSH2 0x627 JUMPI PUSH2 0x626 PUSH2 0x5D0 JUMP JUMPDEST JUMPDEST POP SWAP2 SWAP1 POP JUMP JUMPDEST PUSH0 DUP2 SWAP1 POP DUP2 PUSH0 MSTORE PUSH1 0x20 PUSH0 KECCAK256 SWAP1 POP SWAP2 SWAP1 POP JUMP JUMPDEST PUSH0 PUSH1 0x20 PUSH1 0x1F DUP4 ADD DIV SWAP1 POP SWAP2 SWAP1 POP JUMP JUMPDEST PUSH0 DUP3 DUP3 SHL SWAP1 POP SWAP3 SWAP2 POP POP JUMP JUMPDEST PUSH0 PUSH1 0x8 DUP4 MUL PUSH2 0x689 PUSH32 0xFFFFFFFFFFFFFFFFFFFFFFFFFFFFFFFFFFFFFFFFFFFFFFFFFFFFFFFFFFFFFFFF DUP3 PUSH2 0x64E JUMP JUMPDEST PUSH2 0x693 DUP7 DUP4 PUSH2 0x64E JUMP JUMPDEST SWAP6 POP DUP1 NOT DUP5 AND SWAP4 POP DUP1 DUP7 AND DUP5 OR SWAP3 POP POP POP SWAP4 SWAP3 POP POP POP JUMP JUMPDEST PUSH0 DUP2 SWAP1 POP SWAP2 SWAP1 POP JUMP JUMPDEST PUSH0 PUSH2 0x6CE PUSH2 0x6C9 PUSH2 0x6C4 DUP5 PUSH2 0x265 JUMP JUMPDEST PUSH2 0x6AB JUMP JUMPDEST PUSH2 0x265 JUMP JUMPDEST SWAP1 POP SWAP2 SWAP1 POP JUMP JUMPDEST PUSH0 DUP2 SWAP1 POP SWAP2 SWAP1 POP JUMP JUMPDEST PUSH2 0x6E7 DUP4 PUSH2 0x6B4 JUMP JUMPDEST PUSH2 0x6FB PUSH2 0x6F3 DUP3 PUSH2 0x6D5 JUMP JUMPDEST DUP5 DUP5 SLOAD PUSH2 0x65A JUMP JUMPDEST DUP3 SSTORE POP POP POP POP JUMP JUMPDEST PUSH0 SWAP1 JUMP JUMPDEST PUSH2 0x70F PUSH2 0x703 JUMP JUMPDEST PUSH2 0x71A DUP2 DUP5 DUP5 PUSH2 0x6DE JUMP JUMPDEST POP POP POP JUMP JUMPDEST JUMPDEST DUP2 DUP2 LT ISZERO PUSH2 0x73D JUMPI PUSH2 0x732 PUSH0 DUP3 PUSH2 0x707 JUMP JUMPDEST PUSH1 0x1 DUP2 ADD SWAP1 POP PUSH2 0x720 JUMP JUMPDEST POP POP JUMP JUMPDEST PUSH1 0x1F DUP3 GT ISZERO PUSH2 0x782 JUMPI PUSH2 0x753 DUP2 PUSH2 0x62D JUMP JUMPDEST PUSH2 0x75C DUP5 PUSH2 0x63F JUMP JUMPDEST DUP2 ADD PUSH1 0x20 DUP6 LT ISZERO PUSH2 0x76B JUMPI DUP2 SWAP1 POP JUMPDEST PUSH2 0x77F PUSH2 0x777 DUP6 PUSH2 0x63F JUMP JUMPDEST DUP4 ADD DUP3 PUSH2 0x71F JUMP JUMPDEST POP POP JUMPDEST POP POP POP JUMP JUMPDEST PUSH0 DUP3 DUP3 SHR SWAP1 POP SWAP3 SWAP2 POP POP JUMP JUMPDEST PUSH0 PUSH2 0x7A2 PUSH0 NOT DUP5 PUSH1 0x8 MUL PUSH2 0x787 JUMP JUMPDEST NOT DUP1 DUP4 AND SWAP2 POP POP SWAP3 SWAP2 POP POP JUMP JUMPDEST PUSH0 PUSH2 0x7BA DUP4 DUP4 PUSH2 0x793 JUMP JUMPDEST SWAP2 POP DUP3 PUSH1 0x2 MUL DUP3 OR SWAP1 POP SWAP3 SWAP2 POP POP JUMP JUMPDEST PUSH2 0x7D3 DUP3 PUSH2 0x4C8 JUMP JUMPDEST PUSH8 0xFFFFFFFFFFFFFFFF DUP2 GT ISZERO PUSH2 0x7EC JUMPI PUSH2 0x7EB PUSH2 0x2DB JUMP JUMPDEST JUMPDEST PUSH2 0x7F6 DUP3 SLOAD PUSH2 0x5FD JUMP JUMPDEST PUSH2 0x801 DUP3 DUP3 DUP6 PUSH2 0x741 JUMP JUMPDEST PUSH0 PUSH1 0x20 SWAP1 POP PUSH1 0x1F DUP4 GT PUSH1 0x1 DUP2 EQ PUSH2 0x832 JUMPI PUSH0 DUP5 ISZERO PUSH2 0x820 JUMPI DUP3 DUP8 ADD MLOAD SWAP1 POP JUMPDEST PUSH2 0x82A DUP6 DUP3 PUSH2 0x7AF JUMP JUMPDEST DUP7 SSTORE POP PUSH2 0x891 JUMP JUMPDEST PUSH1 0x1F NOT DUP5 AND PUSH2 0x840 DUP7 PUSH2 0x62D JUMP JUMPDEST PUSH0 JUMPDEST DUP3 DUP2 LT ISZERO PUSH2 0x867 JUMPI DUP5 DUP10 ADD MLOAD DUP3 SSTORE PUSH1 0x1 DUP3 ADD SWAP2 POP PUSH1 0x20 DUP6 ADD SWAP5 POP PUSH1 0x20 DUP2 ADD SWAP1 POP PUSH2 0x842 JUMP JUMPDEST DUP7 DUP4 LT ISZERO PUSH2 0x884 JUMPI DUP5 DUP10 ADD MLOAD PUSH2 0x880 PUSH1 0x1F DUP10 AND DUP3 PUSH2 0x793 JUMP JUMPDEST DUP4 SSTORE POP JUMPDEST PUSH1 0x1 PUSH1 0x2 DUP9 MUL ADD DUP9 SSTORE POP POP POP JUMPDEST POP POP POP POP POP POP JUMP JUMPDEST PUSH0 DUP2 SWAP1 POP SWAP3 SWAP2 POP POP JUMP JUMPDEST PUSH0 PUSH2 0x8AD DUP3 PUSH2 0x4C8 JUMP JUMPDEST PUSH2 0x8B7 DUP2 DUP6 PUSH2 0x899 JUMP JUMPDEST SWAP4 POP PUSH2 0x8C7 DUP2 DUP6 PUSH1 0x20 DUP7 ADD PUSH2 0x4E2 JUMP JUMPDEST DUP1 DUP5 ADD SWAP2 POP POP SWAP3 SWAP2 POP POP JUMP JUMPDEST PUSH0 PUSH2 0x8DE DUP3 DUP5 PUSH2 0x8A3 JUMP JUMPDEST SWAP2 POP DUP2 SWAP1 POP SWAP3 SWAP2 POP POP JUMP INVALID LOG2 PUSH5 0x6970667358 0x22 SLT KECCAK256 0xDF SWAP7 SLOAD 0xB8 SGT 0xBE 0xB6 0xBF GT 0xF6 GT 0xC5 0x1E ADD 0xBC PUSH11 0x7B3CEB215DB80CFE474A90 0x27 0xC9 DUP14 PUSH1 0xBA PUSH5 0x736F6C6343 STOP ADDMOD AND STOP CALLER "
				},
				"gasEstimates": {
					"creation": {
						"codeDepositCost": "467000",
						"executionCost": "497",
						"totalCost": "467497"
					},
					"external": {
						"agePerson(string)": "infinite",
						"createPerson(string,uint256)": "infinite",
						"favNum()": "2447",
						"setFavNum(uint256)": "infinite"
					}
				},
				"methodIdentifiers": {
					"agePerson(string)": "daed8f76",
					"createPerson(string,uint256)": "1ef455c7",
					"favNum()": "3c8df652",
					"setFavNum(uint256)": "0eb4f902"
				}
			},
			"storageLayout": {
				"storage": [
					{
						"astId": 30,
						"contract": "alterFavNum.sol:alterFavNum",
						"label": "people",
						"offset": 0,
						"slot": "0",
						"type": "t_array(t_struct(Person)26_storage)dyn_storage"
					},
					{
						"astId": 32,
						"contract": "alterFavNum.sol:alterFavNum",
						"label": "favNum",
						"offset": 0,
						"slot": "1",
						"type": "t_uint256"
					},
					{
						"astId": 37,
						"contract": "alterFavNum.sol:alterFavNum",
						"label": "agePerson",
						"offset": 0,
						"slot": "2",
						"type": "t_mapping(t_string_memory_ptr,t_struct(Person)26_storage)"
					}
				],
				"types": {
					"t_array(t_struct(Person)26_storage)dyn_storage": {
						"base": "t_struct(Person)26_storage",
						"encoding": "dynamic_array",
						"label": "struct Simple.Person[]",
						"numberOfBytes": "32"
					},
					"t_mapping(t_string_memory_ptr,t_struct(Person)26_storage)": {
						"encoding": "mapping",
						"key": "t_string_memory_ptr",
						"label": "mapping(string => struct Simple.Person)",
						"numberOfBytes": "32",
						"value": "t_struct(Person)26_storage"
					},
					"t_string_memory_ptr": {
						"encoding": "bytes",
						"label": "string",
						"numberOfBytes": "32"
					},
					"t_string_storage": {
						"encoding": "bytes",
						"label": "string",
						"numberOfBytes": "32"
					},
					"t_struct(Person)26_storage": {
						"encoding": "inplace",
						"label": "struct Simple.Person",
						"members": [
							{
								"astId": 23,
								"contract": "alterFavNum.sol:alterFavNum",
								"label": "name",
								"offset": 0,
								"slot": "0",
								"type": "t_string_storage"
							},
							{
								"astId": 25,
								"contract": "alterFavNum.sol:alterFavNum",
								"label": "age",
								"offset": 0,
								"slot": "1",
								"type": "t_uint256"
							}
						],
						"numberOfBytes": "64"
					},
					"t_uint256": {
						"encoding": "inplace",
						"label": "uint256",
						"numberOfBytes": "32"
					}
				}
			},
			"userdoc": {
				"kind": "user",
				"methods": {},
				"version": 1
			}
		}
	}
}