{
	"simplestorage.sol": {
		"Simple": {
			"abi": [
				{
					"inputs": [
						{
							"internalType": "string",
							"name": "",
							"type": "string"
						}
					],
					"name": "agePerson",
					"outputs": [
						{
							"internalType": "string",
							"name": "name",
							"type": "string"
						},
						{
							"internalType": "uint256",
							"name": "age",
							"type": "uint256"
						}
					],
					"stateMutability": "view",
					"type": "function"
				},
				{
					"inputs": [
						{
							"internalType": "string",
							"name": "_name",
							"type": "string"
						},
						{
							"internalType": "uint256",
							"name": "_age",
							"type": "uint256"
						}
					],
					"name": "createPerson",
					"outputs": [],
					"stateMutability": "nonpayable",
					"type": "function"
				}
			],
			"devdoc": {
				"kind": "dev",
				"methods": {},
				"version": 1
			},
			"evm": {
				"assembly": "    /* \"simplestorage.sol\":59:439  contract Simple {... */\n  mstore(0x40, 0x80)\n  callvalue\n  dup1\n  iszero\n  tag_1\n  jumpi\n  0x00\n  dup1\n  revert\ntag_1:\n  pop\n  dataSize(sub_0)\n  dup1\n  dataOffset(sub_0)\n  0x00\n  codecopy\n  0x00\n  return\nstop\n\nsub_0: assembly {\n        /* \"simplestorage.sol\":59:439  contract Simple {... */\n      mstore(0x40, 0x80)\n      callvalue\n      dup1\n      iszero\n      tag_1\n      jumpi\n      0x00\n      dup1\n      revert\n    tag_1:\n      pop\n      jumpi(tag_2, lt(calldatasize, 0x04))\n      shr(0xe0, calldataload(0x00))\n      dup1\n      0x1ef455c7\n      eq\n      tag_3\n      jumpi\n      dup1\n      0xdaed8f76\n      eq\n      tag_4\n      jumpi\n    tag_2:\n      0x00\n      dup1\n      revert\n        /* \"simplestorage.sol\":232:436  function createPerson(string memory _name, uint256 _age) public {... */\n    tag_3:\n      tag_5\n      0x04\n      dup1\n      calldatasize\n      sub\n      dup2\n      add\n      swap1\n      tag_6\n      swap2\n      swap1\n      tag_7\n      jump\t// in\n    tag_6:\n      tag_8\n      jump\t// in\n    tag_5:\n      stop\n        /* \"simplestorage.sol\":181:223  mapping(string => Person) public agePerson */\n    tag_4:\n      tag_9\n      0x04\n      dup1\n      calldatasize\n      sub\n      dup2\n      add\n      swap1\n      tag_10\n      swap2\n      swap1\n      tag_11\n      jump\t// in\n    tag_10:\n      tag_12\n      jump\t// in\n    tag_9:\n      mload(0x40)\n      tag_13\n      swap3\n      swap2\n      swap1\n      tag_14\n      jump\t// in\n    tag_13:\n      mload(0x40)\n      dup1\n      swap2\n      sub\n      swap1\n      return\n        /* \"simplestorage.sol\":232:436  function createPerson(string memory _name, uint256 _age) public {... */\n    tag_8:\n        /* \"simplestorage.sol\":307:327  Person memory person */\n      0x00\n        /* \"simplestorage.sol\":330:362  Person ({name:_name, age: _age}) */\n      mload(0x40)\n      dup1\n      0x40\n      add\n      0x40\n      mstore\n      dup1\n        /* \"simplestorage.sol\":344:349  _name */\n      dup5\n        /* \"simplestorage.sol\":330:362  Person ({name:_name, age: _age}) */\n      dup2\n      mstore\n      0x20\n      add\n        /* \"simplestorage.sol\":356:360  _age */\n      dup4\n        /* \"simplestorage.sol\":330:362  Person ({name:_name, age: _age}) */\n      dup2\n      mstore\n      pop\n        /* \"simplestorage.sol\":307:362  Person memory person = Person ({name:_name, age: _age}) */\n      swap1\n      pop\n        /* \"simplestorage.sol\":373:379  people */\n      0x00\n        /* \"simplestorage.sol\":385:391  person */\n      dup2\n        /* \"simplestorage.sol\":373:392  people.push(person) */\n      swap1\n      dup1\n      0x01\n      dup2\n      sload\n      add\n      dup1\n      dup3\n      sstore\n      dup1\n      swap2\n      pop\n      pop\n      0x01\n      swap1\n      sub\n      swap1\n      0x00\n      mstore\n      keccak256(0x00, 0x20)\n      swap1\n      0x02\n      mul\n      add\n      0x00\n      swap1\n      swap2\n      swap1\n      swap2\n      swap1\n      swap2\n      pop\n      0x00\n      dup3\n      add\n      mload\n      dup2\n      0x00\n      add\n      swap1\n      dup2\n      tag_17\n      swap2\n      swap1\n      tag_18\n      jump\t// in\n    tag_17:\n      pop\n      0x20\n      dup3\n      add\n      mload\n      dup2\n      0x01\n      add\n      sstore\n      pop\n      pop\n        /* \"simplestorage.sol\":422:428  person */\n      dup1\n        /* \"simplestorage.sol\":403:412  agePerson */\n      0x01\n        /* \"simplestorage.sol\":413:418  _name */\n      dup5\n        /* \"simplestorage.sol\":403:419  agePerson[_name] */\n      mload(0x40)\n      tag_19\n      swap2\n      swap1\n      tag_20\n      jump\t// in\n    tag_19:\n      swap1\n      dup2\n      mstore\n      0x20\n      add\n      mload(0x40)\n      dup1\n      swap2\n      sub\n      swap1\n      keccak256\n        /* \"simplestorage.sol\":403:428  agePerson[_name] = person */\n      0x00\n      dup3\n      add\n      mload\n      dup2\n      0x00\n      add\n      swap1\n      dup2\n      tag_21\n      swap2\n      swap1\n      tag_18\n      jump\t// in\n    tag_21:\n      pop\n      0x20\n      dup3\n      add\n      mload\n      dup2\n      0x01\n      add\n      sstore\n      swap1\n      pop\n      pop\n        /* \"simplestorage.sol\":296:436  {... */\n      pop\n        /* \"simplestorage.sol\":232:436  function createPerson(string memory _name, uint256 _age) public {... */\n      pop\n      pop\n      jump\t// out\n        /* \"simplestorage.sol\":181:223  mapping(string => Person) public agePerson */\n    tag_12:\n      0x01\n      dup2\n      dup1\n      mload\n      0x20\n      dup2\n      add\n      dup3\n      add\n      dup1\n      mload\n      dup5\n      dup3\n      mstore\n      0x20\n      dup4\n      add\n      0x20\n      dup6\n      add\n      keccak256\n      dup2\n      dup4\n      mstore\n      dup1\n      swap6\n      pop\n      pop\n      pop\n      pop\n      pop\n      pop\n      0x00\n      swap2\n      pop\n      swap1\n      pop\n      dup1\n      0x00\n      add\n      dup1\n      sload\n      tag_22\n      swap1\n      tag_23\n      jump\t// in\n    tag_22:\n      dup1\n      0x1f\n      add\n      0x20\n      dup1\n      swap2\n      div\n      mul\n      0x20\n      add\n      mload(0x40)\n      swap1\n      dup2\n      add\n      0x40\n      mstore\n      dup1\n      swap3\n      swap2\n      swap1\n      dup2\n      dup2\n      mstore\n      0x20\n      add\n      dup3\n      dup1\n      sload\n      tag_24\n      swap1\n      tag_23\n      jump\t// in\n    tag_24:\n      dup1\n      iszero\n      tag_25\n      jumpi\n      dup1\n      0x1f\n      lt\n      tag_26\n      jumpi\n      0x0100\n      dup1\n      dup4\n      sload\n      div\n      mul\n      dup4\n      mstore\n      swap2\n      0x20\n      add\n      swap2\n      jump(tag_25)\n    tag_26:\n      dup3\n      add\n      swap2\n      swap1\n      0x00\n      mstore\n      keccak256(0x00, 0x20)\n      swap1\n    tag_27:\n      dup2\n      sload\n      dup2\n      mstore\n      swap1\n      0x01\n      add\n      swap1\n      0x20\n      add\n      dup1\n      dup4\n      gt\n      tag_27\n      jumpi\n      dup3\n      swap1\n      sub\n      0x1f\n      and\n      dup3\n      add\n      swap2\n    tag_25:\n      pop\n      pop\n      pop\n      pop\n      pop\n      swap1\n      dup1\n      0x01\n      add\n      sload\n      swap1\n      pop\n      dup3\n      jump\t// out\n        /* \"#utility.yul\":7:82   */\n    tag_28:\n        /* \"#utility.yul\":40:46   */\n      0x00\n        /* \"#utility.yul\":73:75   */\n      0x40\n        /* \"#utility.yul\":67:76   */\n      mload\n        /* \"#utility.yul\":57:76   */\n      swap1\n      pop\n        /* \"#utility.yul\":7:82   */\n      swap1\n      jump\t// out\n        /* \"#utility.yul\":88:205   */\n    tag_29:\n        /* \"#utility.yul\":197:198   */\n      0x00\n        /* \"#utility.yul\":194:195   */\n      dup1\n        /* \"#utility.yul\":187:199   */\n      revert\n        /* \"#utility.yul\":211:328   */\n    tag_30:\n        /* \"#utility.yul\":320:321   */\n      0x00\n        /* \"#utility.yul\":317:318   */\n      dup1\n        /* \"#utility.yul\":310:322   */\n      revert\n        /* \"#utility.yul\":334:451   */\n    tag_31:\n        /* \"#utility.yul\":443:444   */\n      0x00\n        /* \"#utility.yul\":440:441   */\n      dup1\n        /* \"#utility.yul\":433:445   */\n      revert\n        /* \"#utility.yul\":457:574   */\n    tag_32:\n        /* \"#utility.yul\":566:567   */\n      0x00\n        /* \"#utility.yul\":563:564   */\n      dup1\n        /* \"#utility.yul\":556:568   */\n      revert\n        /* \"#utility.yul\":580:682   */\n    tag_33:\n        /* \"#utility.yul\":621:627   */\n      0x00\n        /* \"#utility.yul\":672:674   */\n      0x1f\n        /* \"#utility.yul\":668:675   */\n      not\n        /* \"#utility.yul\":663:665   */\n      0x1f\n        /* \"#utility.yul\":656:661   */\n      dup4\n        /* \"#utility.yul\":652:666   */\n      add\n        /* \"#utility.yul\":648:676   */\n      and\n        /* \"#utility.yul\":638:676   */\n      swap1\n      pop\n        /* \"#utility.yul\":580:682   */\n      swap2\n      swap1\n      pop\n      jump\t// out\n        /* \"#utility.yul\":688:868   */\n    tag_34:\n        /* \"#utility.yul\":736:813   */\n      0x4e487b7100000000000000000000000000000000000000000000000000000000\n        /* \"#utility.yul\":733:734   */\n      0x00\n        /* \"#utility.yul\":726:814   */\n      mstore\n        /* \"#utility.yul\":833:837   */\n      0x41\n        /* \"#utility.yul\":830:831   */\n      0x04\n        /* \"#utility.yul\":823:838   */\n      mstore\n        /* \"#utility.yul\":857:861   */\n      0x24\n        /* \"#utility.yul\":854:855   */\n      0x00\n        /* \"#utility.yul\":847:862   */\n      revert\n        /* \"#utility.yul\":874:1155   */\n    tag_35:\n        /* \"#utility.yul\":957:984   */\n      tag_76\n        /* \"#utility.yul\":979:983   */\n      dup3\n        /* \"#utility.yul\":957:984   */\n      tag_33\n      jump\t// in\n    tag_76:\n        /* \"#utility.yul\":949:955   */\n      dup2\n        /* \"#utility.yul\":945:985   */\n      add\n        /* \"#utility.yul\":1087:1093   */\n      dup2\n        /* \"#utility.yul\":1075:1085   */\n      dup2\n        /* \"#utility.yul\":1072:1094   */\n      lt\n        /* \"#utility.yul\":1051:1069   */\n      0xffffffffffffffff\n        /* \"#utility.yul\":1039:1049   */\n      dup3\n        /* \"#utility.yul\":1036:1070   */\n      gt\n        /* \"#utility.yul\":1033:1095   */\n      or\n        /* \"#utility.yul\":1030:1118   */\n      iszero\n      tag_77\n      jumpi\n        /* \"#utility.yul\":1098:1116   */\n      tag_78\n      tag_34\n      jump\t// in\n    tag_78:\n        /* \"#utility.yul\":1030:1118   */\n    tag_77:\n        /* \"#utility.yul\":1138:1148   */\n      dup1\n        /* \"#utility.yul\":1134:1136   */\n      0x40\n        /* \"#utility.yul\":1127:1149   */\n      mstore\n        /* \"#utility.yul\":917:1155   */\n      pop\n        /* \"#utility.yul\":874:1155   */\n      pop\n      pop\n      jump\t// out\n        /* \"#utility.yul\":1161:1290   */\n    tag_36:\n        /* \"#utility.yul\":1195:1201   */\n      0x00\n        /* \"#utility.yul\":1222:1242   */\n      tag_80\n      tag_28\n      jump\t// in\n    tag_80:\n        /* \"#utility.yul\":1212:1242   */\n      swap1\n      pop\n        /* \"#utility.yul\":1251:1284   */\n      tag_81\n        /* \"#utility.yul\":1279:1283   */\n      dup3\n        /* \"#utility.yul\":1271:1277   */\n      dup3\n        /* \"#utility.yul\":1251:1284   */\n      tag_35\n      jump\t// in\n    tag_81:\n        /* \"#utility.yul\":1161:1290   */\n      swap2\n      swap1\n      pop\n      jump\t// out\n        /* \"#utility.yul\":1296:1604   */\n    tag_37:\n        /* \"#utility.yul\":1358:1362   */\n      0x00\n        /* \"#utility.yul\":1448:1466   */\n      0xffffffffffffffff\n        /* \"#utility.yul\":1440:1446   */\n      dup3\n        /* \"#utility.yul\":1437:1467   */\n      gt\n        /* \"#utility.yul\":1434:1490   */\n      iszero\n      tag_83\n      jumpi\n        /* \"#utility.yul\":1470:1488   */\n      tag_84\n      tag_34\n      jump\t// in\n    tag_84:\n        /* \"#utility.yul\":1434:1490   */\n    tag_83:\n        /* \"#utility.yul\":1508:1537   */\n      tag_85\n        /* \"#utility.yul\":1530:1536   */\n      dup3\n        /* \"#utility.yul\":1508:1537   */\n      tag_33\n      jump\t// in\n    tag_85:\n        /* \"#utility.yul\":1500:1537   */\n      swap1\n      pop\n        /* \"#utility.yul\":1592:1596   */\n      0x20\n        /* \"#utility.yul\":1586:1590   */\n      dup2\n        /* \"#utility.yul\":1582:1597   */\n      add\n        /* \"#utility.yul\":1574:1597   */\n      swap1\n      pop\n        /* \"#utility.yul\":1296:1604   */\n      swap2\n      swap1\n      pop\n      jump\t// out\n        /* \"#utility.yul\":1610:1756   */\n    tag_38:\n        /* \"#utility.yul\":1707:1713   */\n      dup3\n        /* \"#utility.yul\":1702:1705   */\n      dup2\n        /* \"#utility.yul\":1697:1700   */\n      dup4\n        /* \"#utility.yul\":1684:1714   */\n      calldatacopy\n        /* \"#utility.yul\":1748:1749   */\n      0x00\n        /* \"#utility.yul\":1739:1745   */\n      dup4\n        /* \"#utility.yul\":1734:1737   */\n      dup4\n        /* \"#utility.yul\":1730:1746   */\n      add\n        /* \"#utility.yul\":1723:1750   */\n      mstore\n        /* \"#utility.yul\":1610:1756   */\n      pop\n      pop\n      pop\n      jump\t// out\n        /* \"#utility.yul\":1762:2187   */\n    tag_39:\n        /* \"#utility.yul\":1840:1845   */\n      0x00\n        /* \"#utility.yul\":1865:1931   */\n      tag_88\n        /* \"#utility.yul\":1881:1930   */\n      tag_89\n        /* \"#utility.yul\":1923:1929   */\n      dup5\n        /* \"#utility.yul\":1881:1930   */\n      tag_37\n      jump\t// in\n    tag_89:\n        /* \"#utility.yul\":1865:1931   */\n      tag_36\n      jump\t// in\n    tag_88:\n        /* \"#utility.yul\":1856:1931   */\n      swap1\n      pop\n        /* \"#utility.yul\":1954:1960   */\n      dup3\n        /* \"#utility.yul\":1947:1952   */\n      dup2\n        /* \"#utility.yul\":1940:1961   */\n      mstore\n        /* \"#utility.yul\":1992:1996   */\n      0x20\n        /* \"#utility.yul\":1985:1990   */\n      dup2\n        /* \"#utility.yul\":1981:1997   */\n      add\n        /* \"#utility.yul\":2030:2033   */\n      dup5\n        /* \"#utility.yul\":2021:2027   */\n      dup5\n        /* \"#utility.yul\":2016:2019   */\n      dup5\n        /* \"#utility.yul\":2012:2028   */\n      add\n        /* \"#utility.yul\":2009:2034   */\n      gt\n        /* \"#utility.yul\":2006:2118   */\n      iszero\n      tag_90\n      jumpi\n        /* \"#utility.yul\":2037:2116   */\n      tag_91\n      tag_32\n      jump\t// in\n    tag_91:\n        /* \"#utility.yul\":2006:2118   */\n    tag_90:\n        /* \"#utility.yul\":2127:2181   */\n      tag_92\n        /* \"#utility.yul\":2174:2180   */\n      dup5\n        /* \"#utility.yul\":2169:2172   */\n      dup3\n        /* \"#utility.yul\":2164:2167   */\n      dup6\n        /* \"#utility.yul\":2127:2181   */\n      tag_38\n      jump\t// in\n    tag_92:\n        /* \"#utility.yul\":1846:2187   */\n      pop\n        /* \"#utility.yul\":1762:2187   */\n      swap4\n      swap3\n      pop\n      pop\n      pop\n      jump\t// out\n        /* \"#utility.yul\":2207:2547   */\n    tag_40:\n        /* \"#utility.yul\":2263:2268   */\n      0x00\n        /* \"#utility.yul\":2312:2315   */\n      dup3\n        /* \"#utility.yul\":2305:2309   */\n      0x1f\n        /* \"#utility.yul\":2297:2303   */\n      dup4\n        /* \"#utility.yul\":2293:2310   */\n      add\n        /* \"#utility.yul\":2289:2316   */\n      slt\n        /* \"#utility.yul\":2279:2401   */\n      tag_94\n      jumpi\n        /* \"#utility.yul\":2320:2399   */\n      tag_95\n      tag_31\n      jump\t// in\n    tag_95:\n        /* \"#utility.yul\":2279:2401   */\n    tag_94:\n        /* \"#utility.yul\":2437:2443   */\n      dup2\n        /* \"#utility.yul\":2424:2444   */\n      calldataload\n        /* \"#utility.yul\":2462:2541   */\n      tag_96\n        /* \"#utility.yul\":2537:2540   */\n      dup5\n        /* \"#utility.yul\":2529:2535   */\n      dup3\n        /* \"#utility.yul\":2522:2526   */\n      0x20\n        /* \"#utility.yul\":2514:2520   */\n      dup7\n        /* \"#utility.yul\":2510:2527   */\n      add\n        /* \"#utility.yul\":2462:2541   */\n      tag_39\n      jump\t// in\n    tag_96:\n        /* \"#utility.yul\":2453:2541   */\n      swap2\n      pop\n        /* \"#utility.yul\":2269:2547   */\n      pop\n        /* \"#utility.yul\":2207:2547   */\n      swap3\n      swap2\n      pop\n      pop\n      jump\t// out\n        /* \"#utility.yul\":2553:2630   */\n    tag_41:\n        /* \"#utility.yul\":2590:2597   */\n      0x00\n        /* \"#utility.yul\":2619:2624   */\n      dup2\n        /* \"#utility.yul\":2608:2624   */\n      swap1\n      pop\n        /* \"#utility.yul\":2553:2630   */\n      swap2\n      swap1\n      pop\n      jump\t// out\n        /* \"#utility.yul\":2636:2758   */\n    tag_42:\n        /* \"#utility.yul\":2709:2733   */\n      tag_99\n        /* \"#utility.yul\":2727:2732   */\n      dup2\n        /* \"#utility.yul\":2709:2733   */\n      tag_41\n      jump\t// in\n    tag_99:\n        /* \"#utility.yul\":2702:2707   */\n      dup2\n        /* \"#utility.yul\":2699:2734   */\n      eq\n        /* \"#utility.yul\":2689:2752   */\n      tag_100\n      jumpi\n        /* \"#utility.yul\":2748:2749   */\n      0x00\n        /* \"#utility.yul\":2745:2746   */\n      dup1\n        /* \"#utility.yul\":2738:2750   */\n      revert\n        /* \"#utility.yul\":2689:2752   */\n    tag_100:\n        /* \"#utility.yul\":2636:2758   */\n      pop\n      jump\t// out\n        /* \"#utility.yul\":2764:2903   */\n    tag_43:\n        /* \"#utility.yul\":2810:2815   */\n      0x00\n        /* \"#utility.yul\":2848:2854   */\n      dup2\n        /* \"#utility.yul\":2835:2855   */\n      calldataload\n        /* \"#utility.yul\":2826:2855   */\n      swap1\n      pop\n        /* \"#utility.yul\":2864:2897   */\n      tag_102\n        /* \"#utility.yul\":2891:2896   */\n      dup2\n        /* \"#utility.yul\":2864:2897   */\n      tag_42\n      jump\t// in\n    tag_102:\n        /* \"#utility.yul\":2764:2903   */\n      swap3\n      swap2\n      pop\n      pop\n      jump\t// out\n        /* \"#utility.yul\":2909:3563   */\n    tag_7:\n        /* \"#utility.yul\":2987:2993   */\n      0x00\n        /* \"#utility.yul\":2995:3001   */\n      dup1\n        /* \"#utility.yul\":3044:3046   */\n      0x40\n        /* \"#utility.yul\":3032:3041   */\n      dup4\n        /* \"#utility.yul\":3023:3030   */\n      dup6\n        /* \"#utility.yul\":3019:3042   */\n      sub\n        /* \"#utility.yul\":3015:3047   */\n      slt\n        /* \"#utility.yul\":3012:3131   */\n      iszero\n      tag_104\n      jumpi\n        /* \"#utility.yul\":3050:3129   */\n      tag_105\n      tag_29\n      jump\t// in\n    tag_105:\n        /* \"#utility.yul\":3012:3131   */\n    tag_104:\n        /* \"#utility.yul\":3198:3199   */\n      0x00\n        /* \"#utility.yul\":3187:3196   */\n      dup4\n        /* \"#utility.yul\":3183:3200   */\n      add\n        /* \"#utility.yul\":3170:3201   */\n      calldataload\n        /* \"#utility.yul\":3228:3246   */\n      0xffffffffffffffff\n        /* \"#utility.yul\":3220:3226   */\n      dup2\n        /* \"#utility.yul\":3217:3247   */\n      gt\n        /* \"#utility.yul\":3214:3331   */\n      iszero\n      tag_106\n      jumpi\n        /* \"#utility.yul\":3250:3329   */\n      tag_107\n      tag_30\n      jump\t// in\n    tag_107:\n        /* \"#utility.yul\":3214:3331   */\n    tag_106:\n        /* \"#utility.yul\":3355:3418   */\n      tag_108\n        /* \"#utility.yul\":3410:3417   */\n      dup6\n        /* \"#utility.yul\":3401:3407   */\n      dup3\n        /* \"#utility.yul\":3390:3399   */\n      dup7\n        /* \"#utility.yul\":3386:3408   */\n      add\n        /* \"#utility.yul\":3355:3418   */\n      tag_40\n      jump\t// in\n    tag_108:\n        /* \"#utility.yul\":3345:3418   */\n      swap3\n      pop\n        /* \"#utility.yul\":3141:3428   */\n      pop\n        /* \"#utility.yul\":3467:3469   */\n      0x20\n        /* \"#utility.yul\":3493:3546   */\n      tag_109\n        /* \"#utility.yul\":3538:3545   */\n      dup6\n        /* \"#utility.yul\":3529:3535   */\n      dup3\n        /* \"#utility.yul\":3518:3527   */\n      dup7\n        /* \"#utility.yul\":3514:3536   */\n      add\n        /* \"#utility.yul\":3493:3546   */\n      tag_43\n      jump\t// in\n    tag_109:\n        /* \"#utility.yul\":3483:3546   */\n      swap2\n      pop\n        /* \"#utility.yul\":3438:3556   */\n      pop\n        /* \"#utility.yul\":2909:3563   */\n      swap3\n      pop\n      swap3\n      swap1\n      pop\n      jump\t// out\n        /* \"#utility.yul\":3569:4078   */\n    tag_11:\n        /* \"#utility.yul\":3638:3644   */\n      0x00\n        /* \"#utility.yul\":3687:3689   */\n      0x20\n        /* \"#utility.yul\":3675:3684   */\n      dup3\n        /* \"#utility.yul\":3666:3673   */\n      dup5\n        /* \"#utility.yul\":3662:3685   */\n      sub\n        /* \"#utility.yul\":3658:3690   */\n      slt\n        /* \"#utility.yul\":3655:3774   */\n      iszero\n      tag_111\n      jumpi\n        /* \"#utility.yul\":3693:3772   */\n      tag_112\n      tag_29\n      jump\t// in\n    tag_112:\n        /* \"#utility.yul\":3655:3774   */\n    tag_111:\n        /* \"#utility.yul\":3841:3842   */\n      0x00\n        /* \"#utility.yul\":3830:3839   */\n      dup3\n        /* \"#utility.yul\":3826:3843   */\n      add\n        /* \"#utility.yul\":3813:3844   */\n      calldataload\n        /* \"#utility.yul\":3871:3889   */\n      0xffffffffffffffff\n        /* \"#utility.yul\":3863:3869   */\n      dup2\n        /* \"#utility.yul\":3860:3890   */\n      gt\n        /* \"#utility.yul\":3857:3974   */\n      iszero\n      tag_113\n      jumpi\n        /* \"#utility.yul\":3893:3972   */\n      tag_114\n      tag_30\n      jump\t// in\n    tag_114:\n        /* \"#utility.yul\":3857:3974   */\n    tag_113:\n        /* \"#utility.yul\":3998:4061   */\n      tag_115\n        /* \"#utility.yul\":4053:4060   */\n      dup5\n        /* \"#utility.yul\":4044:4050   */\n      dup3\n        /* \"#utility.yul\":4033:4042   */\n      dup6\n        /* \"#utility.yul\":4029:4051   */\n      add\n        /* \"#utility.yul\":3998:4061   */\n      tag_40\n      jump\t// in\n    tag_115:\n        /* \"#utility.yul\":3988:4061   */\n      swap2\n      pop\n        /* \"#utility.yul\":3784:4071   */\n      pop\n        /* \"#utility.yul\":3569:4078   */\n      swap3\n      swap2\n      pop\n      pop\n      jump\t// out\n        /* \"#utility.yul\":4084:4183   */\n    tag_44:\n        /* \"#utility.yul\":4136:4142   */\n      0x00\n        /* \"#utility.yul\":4170:4175   */\n      dup2\n        /* \"#utility.yul\":4164:4176   */\n      mload\n        /* \"#utility.yul\":4154:4176   */\n      swap1\n      pop\n        /* \"#utility.yul\":4084:4183   */\n      swap2\n      swap1\n      pop\n      jump\t// out\n        /* \"#utility.yul\":4189:4358   */\n    tag_45:\n        /* \"#utility.yul\":4273:4284   */\n      0x00\n        /* \"#utility.yul\":4307:4313   */\n      dup3\n        /* \"#utility.yul\":4302:4305   */\n      dup3\n        /* \"#utility.yul\":4295:4314   */\n      mstore\n        /* \"#utility.yul\":4347:4351   */\n      0x20\n        /* \"#utility.yul\":4342:4345   */\n      dup3\n        /* \"#utility.yul\":4338:4352   */\n      add\n        /* \"#utility.yul\":4323:4352   */\n      swap1\n      pop\n        /* \"#utility.yul\":4189:4358   */\n      swap3\n      swap2\n      pop\n      pop\n      jump\t// out\n        /* \"#utility.yul\":4364:4610   */\n    tag_46:\n        /* \"#utility.yul\":4445:4446   */\n      0x00\n        /* \"#utility.yul\":4455:4568   */\n    tag_119:\n        /* \"#utility.yul\":4469:4475   */\n      dup4\n        /* \"#utility.yul\":4466:4467   */\n      dup2\n        /* \"#utility.yul\":4463:4476   */\n      lt\n        /* \"#utility.yul\":4455:4568   */\n      iszero\n      tag_121\n      jumpi\n        /* \"#utility.yul\":4554:4555   */\n      dup1\n        /* \"#utility.yul\":4549:4552   */\n      dup3\n        /* \"#utility.yul\":4545:4556   */\n      add\n        /* \"#utility.yul\":4539:4557   */\n      mload\n        /* \"#utility.yul\":4535:4536   */\n      dup2\n        /* \"#utility.yul\":4530:4533   */\n      dup5\n        /* \"#utility.yul\":4526:4537   */\n      add\n        /* \"#utility.yul\":4519:4558   */\n      mstore\n        /* \"#utility.yul\":4491:4493   */\n      0x20\n        /* \"#utility.yul\":4488:4489   */\n      dup2\n        /* \"#utility.yul\":4484:4494   */\n      add\n        /* \"#utility.yul\":4479:4494   */\n      swap1\n      pop\n        /* \"#utility.yul\":4455:4568   */\n      jump(tag_119)\n    tag_121:\n        /* \"#utility.yul\":4602:4603   */\n      0x00\n        /* \"#utility.yul\":4593:4599   */\n      dup5\n        /* \"#utility.yul\":4588:4591   */\n      dup5\n        /* \"#utility.yul\":4584:4600   */\n      add\n        /* \"#utility.yul\":4577:4604   */\n      mstore\n        /* \"#utility.yul\":4426:4610   */\n      pop\n        /* \"#utility.yul\":4364:4610   */\n      pop\n      pop\n      pop\n      jump\t// out\n        /* \"#utility.yul\":4616:4993   */\n    tag_47:\n        /* \"#utility.yul\":4704:4707   */\n      0x00\n        /* \"#utility.yul\":4732:4771   */\n      tag_123\n        /* \"#utility.yul\":4765:4770   */\n      dup3\n        /* \"#utility.yul\":4732:4771   */\n      tag_44\n      jump\t// in\n    tag_123:\n        /* \"#utility.yul\":4787:4858   */\n      tag_124\n        /* \"#utility.yul\":4851:4857   */\n      dup2\n        /* \"#utility.yul\":4846:4849   */\n      dup6\n        /* \"#utility.yul\":4787:4858   */\n      tag_45\n      jump\t// in\n    tag_124:\n        /* \"#utility.yul\":4780:4858   */\n      swap4\n      pop\n        /* \"#utility.yul\":4867:4932   */\n      tag_125\n        /* \"#utility.yul\":4925:4931   */\n      dup2\n        /* \"#utility.yul\":4920:4923   */\n      dup6\n        /* \"#utility.yul\":4913:4917   */\n      0x20\n        /* \"#utility.yul\":4906:4911   */\n      dup7\n        /* \"#utility.yul\":4902:4918   */\n      add\n        /* \"#utility.yul\":4867:4932   */\n      tag_46\n      jump\t// in\n    tag_125:\n        /* \"#utility.yul\":4957:4986   */\n      tag_126\n        /* \"#utility.yul\":4979:4985   */\n      dup2\n        /* \"#utility.yul\":4957:4986   */\n      tag_33\n      jump\t// in\n    tag_126:\n        /* \"#utility.yul\":4952:4955   */\n      dup5\n        /* \"#utility.yul\":4948:4987   */\n      add\n        /* \"#utility.yul\":4941:4987   */\n      swap2\n      pop\n        /* \"#utility.yul\":4708:4993   */\n      pop\n        /* \"#utility.yul\":4616:4993   */\n      swap3\n      swap2\n      pop\n      pop\n      jump\t// out\n        /* \"#utility.yul\":4999:5117   */\n    tag_48:\n        /* \"#utility.yul\":5086:5110   */\n      tag_128\n        /* \"#utility.yul\":5104:5109   */\n      dup2\n        /* \"#utility.yul\":5086:5110   */\n      tag_41\n      jump\t// in\n    tag_128:\n        /* \"#utility.yul\":5081:5084   */\n      dup3\n        /* \"#utility.yul\":5074:5111   */\n      mstore\n        /* \"#utility.yul\":4999:5117   */\n      pop\n      pop\n      jump\t// out\n        /* \"#utility.yul\":5123:5546   */\n    tag_14:\n        /* \"#utility.yul\":5264:5268   */\n      0x00\n        /* \"#utility.yul\":5302:5304   */\n      0x40\n        /* \"#utility.yul\":5291:5300   */\n      dup3\n        /* \"#utility.yul\":5287:5305   */\n      add\n        /* \"#utility.yul\":5279:5305   */\n      swap1\n      pop\n        /* \"#utility.yul\":5351:5360   */\n      dup2\n        /* \"#utility.yul\":5345:5349   */\n      dup2\n        /* \"#utility.yul\":5341:5361   */\n      sub\n        /* \"#utility.yul\":5337:5338   */\n      0x00\n        /* \"#utility.yul\":5326:5335   */\n      dup4\n        /* \"#utility.yul\":5322:5339   */\n      add\n        /* \"#utility.yul\":5315:5362   */\n      mstore\n        /* \"#utility.yul\":5379:5457   */\n      tag_130\n        /* \"#utility.yul\":5452:5456   */\n      dup2\n        /* \"#utility.yul\":5443:5449   */\n      dup6\n        /* \"#utility.yul\":5379:5457   */\n      tag_47\n      jump\t// in\n    tag_130:\n        /* \"#utility.yul\":5371:5457   */\n      swap1\n      pop\n        /* \"#utility.yul\":5467:5539   */\n      tag_131\n        /* \"#utility.yul\":5535:5537   */\n      0x20\n        /* \"#utility.yul\":5524:5533   */\n      dup4\n        /* \"#utility.yul\":5520:5538   */\n      add\n        /* \"#utility.yul\":5511:5517   */\n      dup5\n        /* \"#utility.yul\":5467:5539   */\n      tag_48\n      jump\t// in\n    tag_131:\n        /* \"#utility.yul\":5123:5546   */\n      swap4\n      swap3\n      pop\n      pop\n      pop\n      jump\t// out\n        /* \"#utility.yul\":5552:5732   */\n    tag_49:\n        /* \"#utility.yul\":5600:5677   */\n      0x4e487b7100000000000000000000000000000000000000000000000000000000\n        /* \"#utility.yul\":5597:5598   */\n      0x00\n        /* \"#utility.yul\":5590:5678   */\n      mstore\n        /* \"#utility.yul\":5697:5701   */\n      0x22\n        /* \"#utility.yul\":5694:5695   */\n      0x04\n        /* \"#utility.yul\":5687:5702   */\n      mstore\n        /* \"#utility.yul\":5721:5725   */\n      0x24\n        /* \"#utility.yul\":5718:5719   */\n      0x00\n        /* \"#utility.yul\":5711:5726   */\n      revert\n        /* \"#utility.yul\":5738:6058   */\n    tag_23:\n        /* \"#utility.yul\":5782:5788   */\n      0x00\n        /* \"#utility.yul\":5819:5820   */\n      0x02\n        /* \"#utility.yul\":5813:5817   */\n      dup3\n        /* \"#utility.yul\":5809:5821   */\n      div\n        /* \"#utility.yul\":5799:5821   */\n      swap1\n      pop\n        /* \"#utility.yul\":5866:5867   */\n      0x01\n        /* \"#utility.yul\":5860:5864   */\n      dup3\n        /* \"#utility.yul\":5856:5868   */\n      and\n        /* \"#utility.yul\":5887:5905   */\n      dup1\n        /* \"#utility.yul\":5877:5958   */\n      tag_134\n      jumpi\n        /* \"#utility.yul\":5943:5947   */\n      0x7f\n        /* \"#utility.yul\":5935:5941   */\n      dup3\n        /* \"#utility.yul\":5931:5948   */\n      and\n        /* \"#utility.yul\":5921:5948   */\n      swap2\n      pop\n        /* \"#utility.yul\":5877:5958   */\n    tag_134:\n        /* \"#utility.yul\":6005:6007   */\n      0x20\n        /* \"#utility.yul\":5997:6003   */\n      dup3\n        /* \"#utility.yul\":5994:6008   */\n      lt\n        /* \"#utility.yul\":5974:5992   */\n      dup2\n        /* \"#utility.yul\":5971:6009   */\n      sub\n        /* \"#utility.yul\":5968:6052   */\n      tag_135\n      jumpi\n        /* \"#utility.yul\":6024:6042   */\n      tag_136\n      tag_49\n      jump\t// in\n    tag_136:\n        /* \"#utility.yul\":5968:6052   */\n    tag_135:\n        /* \"#utility.yul\":5789:6058   */\n      pop\n        /* \"#utility.yul\":5738:6058   */\n      swap2\n      swap1\n      pop\n      jump\t// out\n        /* \"#utility.yul\":6064:6205   */\n    tag_50:\n        /* \"#utility.yul\":6113:6117   */\n      0x00\n        /* \"#utility.yul\":6136:6139   */\n      dup2\n        /* \"#utility.yul\":6128:6139   */\n      swap1\n      pop\n        /* \"#utility.yul\":6159:6162   */\n      dup2\n        /* \"#utility.yul\":6156:6157   */\n      0x00\n        /* \"#utility.yul\":6149:6163   */\n      mstore\n        /* \"#utility.yul\":6193:6197   */\n      0x20\n        /* \"#utility.yul\":6190:6191   */\n      0x00\n        /* \"#utility.yul\":6180:6198   */\n      keccak256\n        /* \"#utility.yul\":6172:6198   */\n      swap1\n      pop\n        /* \"#utility.yul\":6064:6205   */\n      swap2\n      swap1\n      pop\n      jump\t// out\n        /* \"#utility.yul\":6211:6304   */\n    tag_51:\n        /* \"#utility.yul\":6248:6254   */\n      0x00\n        /* \"#utility.yul\":6295:6297   */\n      0x20\n        /* \"#utility.yul\":6290:6292   */\n      0x1f\n        /* \"#utility.yul\":6283:6288   */\n      dup4\n        /* \"#utility.yul\":6279:6293   */\n      add\n        /* \"#utility.yul\":6275:6298   */\n      div\n        /* \"#utility.yul\":6265:6298   */\n      swap1\n      pop\n        /* \"#utility.yul\":6211:6304   */\n      swap2\n      swap1\n      pop\n      jump\t// out\n        /* \"#utility.yul\":6310:6417   */\n    tag_52:\n        /* \"#utility.yul\":6354:6362   */\n      0x00\n        /* \"#utility.yul\":6404:6409   */\n      dup3\n        /* \"#utility.yul\":6398:6402   */\n      dup3\n        /* \"#utility.yul\":6394:6410   */\n      shl\n        /* \"#utility.yul\":6373:6410   */\n      swap1\n      pop\n        /* \"#utility.yul\":6310:6417   */\n      swap3\n      swap2\n      pop\n      pop\n      jump\t// out\n        /* \"#utility.yul\":6423:6816   */\n    tag_53:\n        /* \"#utility.yul\":6492:6498   */\n      0x00\n        /* \"#utility.yul\":6542:6543   */\n      0x08\n        /* \"#utility.yul\":6530:6540   */\n      dup4\n        /* \"#utility.yul\":6526:6544   */\n      mul\n        /* \"#utility.yul\":6565:6662   */\n      tag_141\n        /* \"#utility.yul\":6595:6661   */\n      0xffffffffffffffffffffffffffffffffffffffffffffffffffffffffffffffff\n        /* \"#utility.yul\":6584:6593   */\n      dup3\n        /* \"#utility.yul\":6565:6662   */\n      tag_52\n      jump\t// in\n    tag_141:\n        /* \"#utility.yul\":6683:6722   */\n      tag_142\n        /* \"#utility.yul\":6713:6721   */\n      dup7\n        /* \"#utility.yul\":6702:6711   */\n      dup4\n        /* \"#utility.yul\":6683:6722   */\n      tag_52\n      jump\t// in\n    tag_142:\n        /* \"#utility.yul\":6671:6722   */\n      swap6\n      pop\n        /* \"#utility.yul\":6755:6759   */\n      dup1\n        /* \"#utility.yul\":6751:6760   */\n      not\n        /* \"#utility.yul\":6744:6749   */\n      dup5\n        /* \"#utility.yul\":6740:6761   */\n      and\n        /* \"#utility.yul\":6731:6761   */\n      swap4\n      pop\n        /* \"#utility.yul\":6804:6808   */\n      dup1\n        /* \"#utility.yul\":6794:6802   */\n      dup7\n        /* \"#utility.yul\":6790:6809   */\n      and\n        /* \"#utility.yul\":6783:6788   */\n      dup5\n        /* \"#utility.yul\":6780:6810   */\n      or\n        /* \"#utility.yul\":6770:6810   */\n      swap3\n      pop\n        /* \"#utility.yul\":6499:6816   */\n      pop\n      pop\n        /* \"#utility.yul\":6423:6816   */\n      swap4\n      swap3\n      pop\n      pop\n      pop\n      jump\t// out\n        /* \"#utility.yul\":6822:6882   */\n    tag_54:\n        /* \"#utility.yul\":6850:6853   */\n      0x00\n        /* \"#utility.yul\":6871:6876   */\n      dup2\n        /* \"#utility.yul\":6864:6876   */\n      swap1\n      pop\n        /* \"#utility.yul\":6822:6882   */\n      swap2\n      swap1\n      pop\n      jump\t// out\n        /* \"#utility.yul\":6888:7030   */\n    tag_55:\n        /* \"#utility.yul\":6938:6947   */\n      0x00\n        /* \"#utility.yul\":6971:7024   */\n      tag_145\n        /* \"#utility.yul\":6989:7023   */\n      tag_146\n        /* \"#utility.yul\":6998:7022   */\n      tag_147\n        /* \"#utility.yul\":7016:7021   */\n      dup5\n        /* \"#utility.yul\":6998:7022   */\n      tag_41\n      jump\t// in\n    tag_147:\n        /* \"#utility.yul\":6989:7023   */\n      tag_54\n      jump\t// in\n    tag_146:\n        /* \"#utility.yul\":6971:7024   */\n      tag_41\n      jump\t// in\n    tag_145:\n        /* \"#utility.yul\":6958:7024   */\n      swap1\n      pop\n        /* \"#utility.yul\":6888:7030   */\n      swap2\n      swap1\n      pop\n      jump\t// out\n        /* \"#utility.yul\":7036:7111   */\n    tag_56:\n        /* \"#utility.yul\":7079:7082   */\n      0x00\n        /* \"#utility.yul\":7100:7105   */\n      dup2\n        /* \"#utility.yul\":7093:7105   */\n      swap1\n      pop\n        /* \"#utility.yul\":7036:7111   */\n      swap2\n      swap1\n      pop\n      jump\t// out\n        /* \"#utility.yul\":7117:7386   */\n    tag_57:\n        /* \"#utility.yul\":7227:7266   */\n      tag_150\n        /* \"#utility.yul\":7258:7265   */\n      dup4\n        /* \"#utility.yul\":7227:7266   */\n      tag_55\n      jump\t// in\n    tag_150:\n        /* \"#utility.yul\":7288:7379   */\n      tag_151\n        /* \"#utility.yul\":7337:7378   */\n      tag_152\n        /* \"#utility.yul\":7361:7377   */\n      dup3\n        /* \"#utility.yul\":7337:7378   */\n      tag_56\n      jump\t// in\n    tag_152:\n        /* \"#utility.yul\":7329:7335   */\n      dup5\n        /* \"#utility.yul\":7322:7326   */\n      dup5\n        /* \"#utility.yul\":7316:7327   */\n      sload\n        /* \"#utility.yul\":7288:7379   */\n      tag_53\n      jump\t// in\n    tag_151:\n        /* \"#utility.yul\":7282:7286   */\n      dup3\n        /* \"#utility.yul\":7275:7380   */\n      sstore\n        /* \"#utility.yul\":7193:7386   */\n      pop\n        /* \"#utility.yul\":7117:7386   */\n      pop\n      pop\n      pop\n      jump\t// out\n        /* \"#utility.yul\":7392:7465   */\n    tag_58:\n        /* \"#utility.yul\":7437:7440   */\n      0x00\n        /* \"#utility.yul\":7392:7465   */\n      swap1\n      jump\t// out\n        /* \"#utility.yul\":7471:7660   */\n    tag_59:\n        /* \"#utility.yul\":7548:7580   */\n      tag_155\n      tag_58\n      jump\t// in\n    tag_155:\n        /* \"#utility.yul\":7589:7654   */\n      tag_156\n        /* \"#utility.yul\":7647:7653   */\n      dup2\n        /* \"#utility.yul\":7639:7645   */\n      dup5\n        /* \"#utility.yul\":7633:7637   */\n      dup5\n        /* \"#utility.yul\":7589:7654   */\n      tag_57\n      jump\t// in\n    tag_156:\n        /* \"#utility.yul\":7524:7660   */\n      pop\n        /* \"#utility.yul\":7471:7660   */\n      pop\n      pop\n      jump\t// out\n        /* \"#utility.yul\":7666:7852   */\n    tag_60:\n        /* \"#utility.yul\":7726:7846   */\n    tag_158:\n        /* \"#utility.yul\":7743:7746   */\n      dup2\n        /* \"#utility.yul\":7736:7741   */\n      dup2\n        /* \"#utility.yul\":7733:7747   */\n      lt\n        /* \"#utility.yul\":7726:7846   */\n      iszero\n      tag_160\n      jumpi\n        /* \"#utility.yul\":7797:7836   */\n      tag_161\n        /* \"#utility.yul\":7834:7835   */\n      0x00\n        /* \"#utility.yul\":7827:7832   */\n      dup3\n        /* \"#utility.yul\":7797:7836   */\n      tag_59\n      jump\t// in\n    tag_161:\n        /* \"#utility.yul\":7770:7771   */\n      0x01\n        /* \"#utility.yul\":7763:7768   */\n      dup2\n        /* \"#utility.yul\":7759:7772   */\n      add\n        /* \"#utility.yul\":7750:7772   */\n      swap1\n      pop\n        /* \"#utility.yul\":7726:7846   */\n      jump(tag_158)\n    tag_160:\n        /* \"#utility.yul\":7666:7852   */\n      pop\n      pop\n      jump\t// out\n        /* \"#utility.yul\":7858:8401   */\n    tag_61:\n        /* \"#utility.yul\":7959:7961   */\n      0x1f\n        /* \"#utility.yul\":7954:7957   */\n      dup3\n        /* \"#utility.yul\":7951:7962   */\n      gt\n        /* \"#utility.yul\":7948:8394   */\n      iszero\n      tag_163\n      jumpi\n        /* \"#utility.yul\":7993:8031   */\n      tag_164\n        /* \"#utility.yul\":8025:8030   */\n      dup2\n        /* \"#utility.yul\":7993:8031   */\n      tag_50\n      jump\t// in\n    tag_164:\n        /* \"#utility.yul\":8077:8106   */\n      tag_165\n        /* \"#utility.yul\":8095:8105   */\n      dup5\n        /* \"#utility.yul\":8077:8106   */\n      tag_51\n      jump\t// in\n    tag_165:\n        /* \"#utility.yul\":8067:8075   */\n      dup2\n        /* \"#utility.yul\":8063:8107   */\n      add\n        /* \"#utility.yul\":8260:8262   */\n      0x20\n        /* \"#utility.yul\":8248:8258   */\n      dup6\n        /* \"#utility.yul\":8245:8263   */\n      lt\n        /* \"#utility.yul\":8242:8291   */\n      iszero\n      tag_166\n      jumpi\n        /* \"#utility.yul\":8281:8289   */\n      dup2\n        /* \"#utility.yul\":8266:8289   */\n      swap1\n      pop\n        /* \"#utility.yul\":8242:8291   */\n    tag_166:\n        /* \"#utility.yul\":8304:8384   */\n      tag_167\n        /* \"#utility.yul\":8360:8382   */\n      tag_168\n        /* \"#utility.yul\":8378:8381   */\n      dup6\n        /* \"#utility.yul\":8360:8382   */\n      tag_51\n      jump\t// in\n    tag_168:\n        /* \"#utility.yul\":8350:8358   */\n      dup4\n        /* \"#utility.yul\":8346:8383   */\n      add\n        /* \"#utility.yul\":8333:8344   */\n      dup3\n        /* \"#utility.yul\":8304:8384   */\n      tag_60\n      jump\t// in\n    tag_167:\n        /* \"#utility.yul\":7963:8394   */\n      pop\n      pop\n        /* \"#utility.yul\":7948:8394   */\n    tag_163:\n        /* \"#utility.yul\":7858:8401   */\n      pop\n      pop\n      pop\n      jump\t// out\n        /* \"#utility.yul\":8407:8524   */\n    tag_62:\n        /* \"#utility.yul\":8461:8469   */\n      0x00\n        /* \"#utility.yul\":8511:8516   */\n      dup3\n        /* \"#utility.yul\":8505:8509   */\n      dup3\n        /* \"#utility.yul\":8501:8517   */\n      shr\n        /* \"#utility.yul\":8480:8517   */\n      swap1\n      pop\n        /* \"#utility.yul\":8407:8524   */\n      swap3\n      swap2\n      pop\n      pop\n      jump\t// out\n        /* \"#utility.yul\":8530:8699   */\n    tag_63:\n        /* \"#utility.yul\":8574:8580   */\n      0x00\n        /* \"#utility.yul\":8607:8658   */\n      tag_171\n        /* \"#utility.yul\":8655:8656   */\n      0x00\n        /* \"#utility.yul\":8651:8657   */\n      not\n        /* \"#utility.yul\":8643:8648   */\n      dup5\n        /* \"#utility.yul\":8640:8641   */\n      0x08\n        /* \"#utility.yul\":8636:8649   */\n      mul\n        /* \"#utility.yul\":8607:8658   */\n      tag_62\n      jump\t// in\n    tag_171:\n        /* \"#utility.yul\":8603:8659   */\n      not\n        /* \"#utility.yul\":8688:8692   */\n      dup1\n        /* \"#utility.yul\":8682:8686   */\n      dup4\n        /* \"#utility.yul\":8678:8693   */\n      and\n        /* \"#utility.yul\":8668:8693   */\n      swap2\n      pop\n        /* \"#utility.yul\":8581:8699   */\n      pop\n        /* \"#utility.yul\":8530:8699   */\n      swap3\n      swap2\n      pop\n      pop\n      jump\t// out\n        /* \"#utility.yul\":8704:8999   */\n    tag_64:\n        /* \"#utility.yul\":8780:8784   */\n      0x00\n        /* \"#utility.yul\":8926:8955   */\n      tag_173\n        /* \"#utility.yul\":8951:8954   */\n      dup4\n        /* \"#utility.yul\":8945:8949   */\n      dup4\n        /* \"#utility.yul\":8926:8955   */\n      tag_63\n      jump\t// in\n    tag_173:\n        /* \"#utility.yul\":8918:8955   */\n      swap2\n      pop\n        /* \"#utility.yul\":8988:8991   */\n      dup3\n        /* \"#utility.yul\":8985:8986   */\n      0x02\n        /* \"#utility.yul\":8981:8992   */\n      mul\n        /* \"#utility.yul\":8975:8979   */\n      dup3\n        /* \"#utility.yul\":8972:8993   */\n      or\n        /* \"#utility.yul\":8964:8993   */\n      swap1\n      pop\n        /* \"#utility.yul\":8704:8999   */\n      swap3\n      swap2\n      pop\n      pop\n      jump\t// out\n        /* \"#utility.yul\":9004:10399   */\n    tag_18:\n        /* \"#utility.yul\":9121:9158   */\n      tag_175\n        /* \"#utility.yul\":9154:9157   */\n      dup3\n        /* \"#utility.yul\":9121:9158   */\n      tag_44\n      jump\t// in\n    tag_175:\n        /* \"#utility.yul\":9223:9241   */\n      0xffffffffffffffff\n        /* \"#utility.yul\":9215:9221   */\n      dup2\n        /* \"#utility.yul\":9212:9242   */\n      gt\n        /* \"#utility.yul\":9209:9265   */\n      iszero\n      tag_176\n      jumpi\n        /* \"#utility.yul\":9245:9263   */\n      tag_177\n      tag_34\n      jump\t// in\n    tag_177:\n        /* \"#utility.yul\":9209:9265   */\n    tag_176:\n        /* \"#utility.yul\":9289:9327   */\n      tag_178\n        /* \"#utility.yul\":9321:9325   */\n      dup3\n        /* \"#utility.yul\":9315:9326   */\n      sload\n        /* \"#utility.yul\":9289:9327   */\n      tag_23\n      jump\t// in\n    tag_178:\n        /* \"#utility.yul\":9374:9441   */\n      tag_179\n        /* \"#utility.yul\":9434:9440   */\n      dup3\n        /* \"#utility.yul\":9426:9432   */\n      dup3\n        /* \"#utility.yul\":9420:9424   */\n      dup6\n        /* \"#utility.yul\":9374:9441   */\n      tag_61\n      jump\t// in\n    tag_179:\n        /* \"#utility.yul\":9468:9469   */\n      0x00\n        /* \"#utility.yul\":9492:9496   */\n      0x20\n        /* \"#utility.yul\":9479:9496   */\n      swap1\n      pop\n        /* \"#utility.yul\":9524:9526   */\n      0x1f\n        /* \"#utility.yul\":9516:9522   */\n      dup4\n        /* \"#utility.yul\":9513:9527   */\n      gt\n        /* \"#utility.yul\":9541:9542   */\n      0x01\n        /* \"#utility.yul\":9536:10154   */\n      dup2\n      eq\n      tag_181\n      jumpi\n        /* \"#utility.yul\":10198:10199   */\n      0x00\n        /* \"#utility.yul\":10215:10221   */\n      dup5\n        /* \"#utility.yul\":10212:10289   */\n      iszero\n      tag_182\n      jumpi\n        /* \"#utility.yul\":10264:10273   */\n      dup3\n        /* \"#utility.yul\":10259:10262   */\n      dup8\n        /* \"#utility.yul\":10255:10274   */\n      add\n        /* \"#utility.yul\":10249:10275   */\n      mload\n        /* \"#utility.yul\":10240:10275   */\n      swap1\n      pop\n        /* \"#utility.yul\":10212:10289   */\n    tag_182:\n        /* \"#utility.yul\":10315:10382   */\n      tag_183\n        /* \"#utility.yul\":10375:10381   */\n      dup6\n        /* \"#utility.yul\":10368:10373   */\n      dup3\n        /* \"#utility.yul\":10315:10382   */\n      tag_64\n      jump\t// in\n    tag_183:\n        /* \"#utility.yul\":10309:10313   */\n      dup7\n        /* \"#utility.yul\":10302:10383   */\n      sstore\n        /* \"#utility.yul\":10171:10393   */\n      pop\n        /* \"#utility.yul\":9506:10393   */\n      jump(tag_180)\n        /* \"#utility.yul\":9536:10154   */\n    tag_181:\n        /* \"#utility.yul\":9588:9592   */\n      0x1f\n        /* \"#utility.yul\":9584:9593   */\n      not\n        /* \"#utility.yul\":9576:9582   */\n      dup5\n        /* \"#utility.yul\":9572:9594   */\n      and\n        /* \"#utility.yul\":9622:9659   */\n      tag_184\n        /* \"#utility.yul\":9654:9658   */\n      dup7\n        /* \"#utility.yul\":9622:9659   */\n      tag_50\n      jump\t// in\n    tag_184:\n        /* \"#utility.yul\":9681:9682   */\n      0x00\n        /* \"#utility.yul\":9695:9903   */\n    tag_185:\n        /* \"#utility.yul\":9709:9716   */\n      dup3\n        /* \"#utility.yul\":9706:9707   */\n      dup2\n        /* \"#utility.yul\":9703:9717   */\n      lt\n        /* \"#utility.yul\":9695:9903   */\n      iszero\n      tag_187\n      jumpi\n        /* \"#utility.yul\":9788:9797   */\n      dup5\n        /* \"#utility.yul\":9783:9786   */\n      dup10\n        /* \"#utility.yul\":9779:9798   */\n      add\n        /* \"#utility.yul\":9773:9799   */\n      mload\n        /* \"#utility.yul\":9765:9771   */\n      dup3\n        /* \"#utility.yul\":9758:9800   */\n      sstore\n        /* \"#utility.yul\":9839:9840   */\n      0x01\n        /* \"#utility.yul\":9831:9837   */\n      dup3\n        /* \"#utility.yul\":9827:9841   */\n      add\n        /* \"#utility.yul\":9817:9841   */\n      swap2\n      pop\n        /* \"#utility.yul\":9886:9888   */\n      0x20\n        /* \"#utility.yul\":9875:9884   */\n      dup6\n        /* \"#utility.yul\":9871:9889   */\n      add\n        /* \"#utility.yul\":9858:9889   */\n      swap5\n      pop\n        /* \"#utility.yul\":9732:9736   */\n      0x20\n        /* \"#utility.yul\":9729:9730   */\n      dup2\n        /* \"#utility.yul\":9725:9737   */\n      add\n        /* \"#utility.yul\":9720:9737   */\n      swap1\n      pop\n        /* \"#utility.yul\":9695:9903   */\n      jump(tag_185)\n    tag_187:\n        /* \"#utility.yul\":9931:9937   */\n      dup7\n        /* \"#utility.yul\":9922:9929   */\n      dup4\n        /* \"#utility.yul\":9919:9938   */\n      lt\n        /* \"#utility.yul\":9916:10095   */\n      iszero\n      tag_188\n      jumpi\n        /* \"#utility.yul\":9989:9998   */\n      dup5\n        /* \"#utility.yul\":9984:9987   */\n      dup10\n        /* \"#utility.yul\":9980:9999   */\n      add\n        /* \"#utility.yul\":9974:10000   */\n      mload\n        /* \"#utility.yul\":10032:10080   */\n      tag_189\n        /* \"#utility.yul\":10074:10078   */\n      0x1f\n        /* \"#utility.yul\":10066:10072   */\n      dup10\n        /* \"#utility.yul\":10062:10079   */\n      and\n        /* \"#utility.yul\":10051:10060   */\n      dup3\n        /* \"#utility.yul\":10032:10080   */\n      tag_63\n      jump\t// in\n    tag_189:\n        /* \"#utility.yul\":10024:10030   */\n      dup4\n        /* \"#utility.yul\":10017:10081   */\n      sstore\n        /* \"#utility.yul\":9939:10095   */\n      pop\n        /* \"#utility.yul\":9916:10095   */\n    tag_188:\n        /* \"#utility.yul\":10141:10142   */\n      0x01\n        /* \"#utility.yul\":10137:10138   */\n      0x02\n        /* \"#utility.yul\":10129:10135   */\n      dup9\n        /* \"#utility.yul\":10125:10139   */\n      mul\n        /* \"#utility.yul\":10121:10143   */\n      add\n        /* \"#utility.yul\":10115:10119   */\n      dup9\n        /* \"#utility.yul\":10108:10144   */\n      sstore\n        /* \"#utility.yul\":9543:10154   */\n      pop\n      pop\n      pop\n        /* \"#utility.yul\":9506:10393   */\n    tag_180:\n      pop\n        /* \"#utility.yul\":9096:10399   */\n      pop\n      pop\n      pop\n        /* \"#utility.yul\":9004:10399   */\n      pop\n      pop\n      jump\t// out\n        /* \"#utility.yul\":10405:10553   */\n    tag_65:\n        /* \"#utility.yul\":10507:10518   */\n      0x00\n        /* \"#utility.yul\":10544:10547   */\n      dup2\n        /* \"#utility.yul\":10529:10547   */\n      swap1\n      pop\n        /* \"#utility.yul\":10405:10553   */\n      swap3\n      swap2\n      pop\n      pop\n      jump\t// out\n        /* \"#utility.yul\":10559:10949   */\n    tag_66:\n        /* \"#utility.yul\":10665:10668   */\n      0x00\n        /* \"#utility.yul\":10693:10732   */\n      tag_192\n        /* \"#utility.yul\":10726:10731   */\n      dup3\n        /* \"#utility.yul\":10693:10732   */\n      tag_44\n      jump\t// in\n    tag_192:\n        /* \"#utility.yul\":10748:10837   */\n      tag_193\n        /* \"#utility.yul\":10830:10836   */\n      dup2\n        /* \"#utility.yul\":10825:10828   */\n      dup6\n        /* \"#utility.yul\":10748:10837   */\n      tag_65\n      jump\t// in\n    tag_193:\n        /* \"#utility.yul\":10741:10837   */\n      swap4\n      pop\n        /* \"#utility.yul\":10846:10911   */\n      tag_194\n        /* \"#utility.yul\":10904:10910   */\n      dup2\n        /* \"#utility.yul\":10899:10902   */\n      dup6\n        /* \"#utility.yul\":10892:10896   */\n      0x20\n        /* \"#utility.yul\":10885:10890   */\n      dup7\n        /* \"#utility.yul\":10881:10897   */\n      add\n        /* \"#utility.yul\":10846:10911   */\n      tag_46\n      jump\t// in\n    tag_194:\n        /* \"#utility.yul\":10936:10942   */\n      dup1\n        /* \"#utility.yul\":10931:10934   */\n      dup5\n        /* \"#utility.yul\":10927:10943   */\n      add\n        /* \"#utility.yul\":10920:10943   */\n      swap2\n      pop\n        /* \"#utility.yul\":10669:10949   */\n      pop\n        /* \"#utility.yul\":10559:10949   */\n      swap3\n      swap2\n      pop\n      pop\n      jump\t// out\n        /* \"#utility.yul\":10955:11230   */\n    tag_20:\n        /* \"#utility.yul\":11087:11090   */\n      0x00\n        /* \"#utility.yul\":11109:11204   */\n      tag_196\n        /* \"#utility.yul\":11200:11203   */\n      dup3\n        /* \"#utility.yul\":11191:11197   */\n      dup5\n        /* \"#utility.yul\":11109:11204   */\n      tag_66\n      jump\t// in\n    tag_196:\n        /* \"#utility.yul\":11102:11204   */\n      swap2\n      pop\n        /* \"#utility.yul\":11221:11224   */\n      dup2\n        /* \"#utility.yul\":11214:11224   */\n      swap1\n      pop\n        /* \"#utility.yul\":10955:11230   */\n      swap3\n      swap2\n      pop\n      pop\n      jump\t// out\n\n    auxdata: 0xa26469706673582212200d7144af0c35b621e005b250cd92ef83bd0bb72a3260fce331d178dbfe4fd65d64736f6c63430008160033\n}\n",
				"bytecode": {
					"linkReferences": {},
					"object": "608060405234801561000f575f80fd5b5061080f8061001d5f395ff3fe608060405234801561000f575f80fd5b5060043610610034575f3560e01c80631ef455c714610038578063daed8f7614610054575b5f80fd5b610052600480360381019061004d9190610368565b610085565b005b61006e600480360381019061006991906103c2565b61012a565b60405161007c929190610492565b60405180910390f35b5f60405180604001604052808481526020018381525090505f81908060018154018082558091505060019003905f5260205f2090600202015f909190919091505f820151815f0190816100d891906106ba565b50602082015181600101555050806001846040516100f691906107c3565b90815260200160405180910390205f820151815f01908161011791906106ba565b5060208201518160010155905050505050565b6001818051602081018201805184825260208301602085012081835280955050505050505f91509050805f018054610161906104ed565b80601f016020809104026020016040519081016040528092919081815260200182805461018d906104ed565b80156101d85780601f106101af576101008083540402835291602001916101d8565b820191905f5260205f20905b8154815290600101906020018083116101bb57829003601f168201915b5050505050908060010154905082565b5f604051905090565b5f80fd5b5f80fd5b5f80fd5b5f80fd5b5f601f19601f8301169050919050565b7f4e487b71000000000000000000000000000000000000000000000000000000005f52604160045260245ffd5b61024782610201565b810181811067ffffffffffffffff8211171561026657610265610211565b5b80604052505050565b5f6102786101e8565b9050610284828261023e565b919050565b5f67ffffffffffffffff8211156102a3576102a2610211565b5b6102ac82610201565b9050602081019050919050565b828183375f83830152505050565b5f6102d96102d484610289565b61026f565b9050828152602081018484840111156102f5576102f46101fd565b5b6103008482856102b9565b509392505050565b5f82601f83011261031c5761031b6101f9565b5b813561032c8482602086016102c7565b91505092915050565b5f819050919050565b61034781610335565b8114610351575f80fd5b50565b5f813590506103628161033e565b92915050565b5f806040838503121561037e5761037d6101f1565b5b5f83013567ffffffffffffffff81111561039b5761039a6101f5565b5b6103a785828601610308565b92505060206103b885828601610354565b9150509250929050565b5f602082840312156103d7576103d66101f1565b5b5f82013567ffffffffffffffff8111156103f4576103f36101f5565b5b61040084828501610308565b91505092915050565b5f81519050919050565b5f82825260208201905092915050565b5f5b83811015610440578082015181840152602081019050610425565b5f8484015250505050565b5f61045582610409565b61045f8185610413565b935061046f818560208601610423565b61047881610201565b840191505092915050565b61048c81610335565b82525050565b5f6040820190508181035f8301526104aa818561044b565b90506104b96020830184610483565b9392505050565b7f4e487b71000000000000000000000000000000000000000000000000000000005f52602260045260245ffd5b5f600282049050600182168061050457607f821691505b602082108103610517576105166104c0565b5b50919050565b5f819050815f5260205f209050919050565b5f6020601f8301049050919050565b5f82821b905092915050565b5f600883026105797fffffffffffffffffffffffffffffffffffffffffffffffffffffffffffffffff8261053e565b610583868361053e565b95508019841693508086168417925050509392505050565b5f819050919050565b5f6105be6105b96105b484610335565b61059b565b610335565b9050919050565b5f819050919050565b6105d7836105a4565b6105eb6105e3826105c5565b84845461054a565b825550505050565b5f90565b6105ff6105f3565b61060a8184846105ce565b505050565b5b8181101561062d576106225f826105f7565b600181019050610610565b5050565b601f821115610672576106438161051d565b61064c8461052f565b8101602085101561065b578190505b61066f6106678561052f565b83018261060f565b50505b505050565b5f82821c905092915050565b5f6106925f1984600802610677565b1980831691505092915050565b5f6106aa8383610683565b9150826002028217905092915050565b6106c382610409565b67ffffffffffffffff8111156106dc576106db610211565b5b6106e682546104ed565b6106f1828285610631565b5f60209050601f831160018114610722575f8415610710578287015190505b61071a858261069f565b865550610781565b601f1984166107308661051d565b5f5b8281101561075757848901518255600182019150602085019450602081019050610732565b868310156107745784890151610770601f891682610683565b8355505b6001600288020188555050505b505050505050565b5f81905092915050565b5f61079d82610409565b6107a78185610789565b93506107b7818560208601610423565b80840191505092915050565b5f6107ce8284610793565b91508190509291505056fea26469706673582212200d7144af0c35b621e005b250cd92ef83bd0bb72a3260fce331d178dbfe4fd65d64736f6c63430008160033",
					"opcodes": "PUSH1 0x80 PUSH1 0x40 MSTORE CALLVALUE DUP1 ISZERO PUSH2 0xF JUMPI PUSH0 DUP1 REVERT JUMPDEST POP PUSH2 0x80F DUP1 PUSH2 0x1D PUSH0 CODECOPY PUSH0 RETURN INVALID PUSH1 0x80 PUSH1 0x40 MSTORE CALLVALUE DUP1 ISZERO PUSH2 0xF JUMPI PUSH0 DUP1 REVERT JUMPDEST POP PUSH1 0x4 CALLDATASIZE LT PUSH2 0x34 JUMPI PUSH0 CALLDATALOAD PUSH1 0xE0 SHR DUP1 PUSH4 0x1EF455C7 EQ PUSH2 0x38 JUMPI DUP1 PUSH4 0xDAED8F76 EQ PUSH2 0x54 JUMPI JUMPDEST PUSH0 DUP1 REVERT JUMPDEST PUSH2 0x52 PUSH1 0x4 DUP1 CALLDATASIZE SUB DUP2 ADD SWAP1 PUSH2 0x4D SWAP2 SWAP1 PUSH2 0x368 JUMP JUMPDEST PUSH2 0x85 JUMP JUMPDEST STOP JUMPDEST PUSH2 0x6E PUSH1 0x4 DUP1 CALLDATASIZE SUB DUP2 ADD SWAP1 PUSH2 0x69 SWAP2 SWAP1 PUSH2 0x3C2 JUMP JUMPDEST PUSH2 0x12A JUMP JUMPDEST PUSH1 0x40 MLOAD PUSH2 0x7C SWAP3 SWAP2 SWAP1 PUSH2 0x492 JUMP JUMPDEST PUSH1 0x40 MLOAD DUP1 SWAP2 SUB SWAP1 RETURN JUMPDEST PUSH0 PUSH1 0x40 MLOAD DUP1 PUSH1 0x40 ADD PUSH1 0x40 MSTORE DUP1 DUP5 DUP2 MSTORE PUSH1 0x20 ADD DUP4 DUP2 MSTORE POP SWAP1 POP PUSH0 DUP2 SWAP1 DUP1 PUSH1 0x1 DUP2 SLOAD ADD DUP1 DUP3 SSTORE DUP1 SWAP2 POP POP PUSH1 0x1 SWAP1 SUB SWAP1 PUSH0 MSTORE PUSH1 0x20 PUSH0 KECCAK256 SWAP1 PUSH1 0x2 MUL ADD PUSH0 SWAP1 SWAP2 SWAP1 SWAP2 SWAP1 SWAP2 POP PUSH0 DUP3 ADD MLOAD DUP2 PUSH0 ADD SWAP1 DUP2 PUSH2 0xD8 SWAP2 SWAP1 PUSH2 0x6BA JUMP JUMPDEST POP PUSH1 0x20 DUP3 ADD MLOAD DUP2 PUSH1 0x1 ADD SSTORE POP POP DUP1 PUSH1 0x1 DUP5 PUSH1 0x40 MLOAD PUSH2 0xF6 SWAP2 SWAP1 PUSH2 0x7C3 JUMP JUMPDEST SWAP1 DUP2 MSTORE PUSH1 0x20 ADD PUSH1 0x40 MLOAD DUP1 SWAP2 SUB SWAP1 KECCAK256 PUSH0 DUP3 ADD MLOAD DUP2 PUSH0 ADD SWAP1 DUP2 PUSH2 0x117 SWAP2 SWAP1 PUSH2 0x6BA JUMP JUMPDEST POP PUSH1 0x20 DUP3 ADD MLOAD DUP2 PUSH1 0x1 ADD SSTORE SWAP1 POP POP POP POP POP JUMP JUMPDEST PUSH1 0x1 DUP2 DUP1 MLOAD PUSH1 0x20 DUP2 ADD DUP3 ADD DUP1 MLOAD DUP5 DUP3 MSTORE PUSH1 0x20 DUP4 ADD PUSH1 0x20 DUP6 ADD KECCAK256 DUP2 DUP4 MSTORE DUP1 SWAP6 POP POP POP POP POP POP PUSH0 SWAP2 POP SWAP1 POP DUP1 PUSH0 ADD DUP1 SLOAD PUSH2 0x161 SWAP1 PUSH2 0x4ED JUMP JUMPDEST DUP1 PUSH1 0x1F ADD PUSH1 0x20 DUP1 SWAP2 DIV MUL PUSH1 0x20 ADD PUSH1 0x40 MLOAD SWAP1 DUP2 ADD PUSH1 0x40 MSTORE DUP1 SWAP3 SWAP2 SWAP1 DUP2 DUP2 MSTORE PUSH1 0x20 ADD DUP3 DUP1 SLOAD PUSH2 0x18D SWAP1 PUSH2 0x4ED JUMP JUMPDEST DUP1 ISZERO PUSH2 0x1D8 JUMPI DUP1 PUSH1 0x1F LT PUSH2 0x1AF JUMPI PUSH2 0x100 DUP1 DUP4 SLOAD DIV MUL DUP4 MSTORE SWAP2 PUSH1 0x20 ADD SWAP2 PUSH2 0x1D8 JUMP JUMPDEST DUP3 ADD SWAP2 SWAP1 PUSH0 MSTORE PUSH1 0x20 PUSH0 KECCAK256 SWAP1 JUMPDEST DUP2 SLOAD DUP2 MSTORE SWAP1 PUSH1 0x1 ADD SWAP1 PUSH1 0x20 ADD DUP1 DUP4 GT PUSH2 0x1BB JUMPI DUP3 SWAP1 SUB PUSH1 0x1F AND DUP3 ADD SWAP2 JUMPDEST POP POP POP POP POP SWAP1 DUP1 PUSH1 0x1 ADD SLOAD SWAP1 POP DUP3 JUMP JUMPDEST PUSH0 PUSH1 0x40 MLOAD SWAP1 POP SWAP1 JUMP JUMPDEST PUSH0 DUP1 REVERT JUMPDEST PUSH0 DUP1 REVERT JUMPDEST PUSH0 DUP1 REVERT JUMPDEST PUSH0 DUP1 REVERT JUMPDEST PUSH0 PUSH1 0x1F NOT PUSH1 0x1F DUP4 ADD AND SWAP1 POP SWAP2 SWAP1 POP JUMP JUMPDEST PUSH32 0x4E487B7100000000000000000000000000000000000000000000000000000000 PUSH0 MSTORE PUSH1 0x41 PUSH1 0x4 MSTORE PUSH1 0x24 PUSH0 REVERT JUMPDEST PUSH2 0x247 DUP3 PUSH2 0x201 JUMP JUMPDEST DUP2 ADD DUP2 DUP2 LT PUSH8 0xFFFFFFFFFFFFFFFF DUP3 GT OR ISZERO PUSH2 0x266 JUMPI PUSH2 0x265 PUSH2 0x211 JUMP JUMPDEST JUMPDEST DUP1 PUSH1 0x40 MSTORE POP POP POP JUMP JUMPDEST PUSH0 PUSH2 0x278 PUSH2 0x1E8 JUMP JUMPDEST SWAP1 POP PUSH2 0x284 DUP3 DUP3 PUSH2 0x23E JUMP JUMPDEST SWAP2 SWAP1 POP JUMP JUMPDEST PUSH0 PUSH8 0xFFFFFFFFFFFFFFFF DUP3 GT ISZERO PUSH2 0x2A3 JUMPI PUSH2 0x2A2 PUSH2 0x211 JUMP JUMPDEST JUMPDEST PUSH2 0x2AC DUP3 PUSH2 0x201 JUMP JUMPDEST SWAP1 POP PUSH1 0x20 DUP2 ADD SWAP1 POP SWAP2 SWAP1 POP JUMP JUMPDEST DUP3 DUP2 DUP4 CALLDATACOPY PUSH0 DUP4 DUP4 ADD MSTORE POP POP POP JUMP JUMPDEST PUSH0 PUSH2 0x2D9 PUSH2 0x2D4 DUP5 PUSH2 0x289 JUMP JUMPDEST PUSH2 0x26F JUMP JUMPDEST SWAP1 POP DUP3 DUP2 MSTORE PUSH1 0x20 DUP2 ADD DUP5 DUP5 DUP5 ADD GT ISZERO PUSH2 0x2F5 JUMPI PUSH2 0x2F4 PUSH2 0x1FD JUMP JUMPDEST JUMPDEST PUSH2 0x300 DUP5 DUP3 DUP6 PUSH2 0x2B9 JUMP JUMPDEST POP SWAP4 SWAP3 POP POP POP JUMP JUMPDEST PUSH0 DUP3 PUSH1 0x1F DUP4 ADD SLT PUSH2 0x31C JUMPI PUSH2 0x31B PUSH2 0x1F9 JUMP JUMPDEST JUMPDEST DUP2 CALLDATALOAD PUSH2 0x32C DUP5 DUP3 PUSH1 0x20 DUP7 ADD PUSH2 0x2C7 JUMP JUMPDEST SWAP2 POP POP SWAP3 SWAP2 POP POP JUMP JUMPDEST PUSH0 DUP2 SWAP1 POP SWAP2 SWAP1 POP JUMP JUMPDEST PUSH2 0x347 DUP2 PUSH2 0x335 JUMP JUMPDEST DUP2 EQ PUSH2 0x351 JUMPI PUSH0 DUP1 REVERT JUMPDEST POP JUMP JUMPDEST PUSH0 DUP2 CALLDATALOAD SWAP1 POP PUSH2 0x362 DUP2 PUSH2 0x33E JUMP JUMPDEST SWAP3 SWAP2 POP POP JUMP JUMPDEST PUSH0 DUP1 PUSH1 0x40 DUP4 DUP6 SUB SLT ISZERO PUSH2 0x37E JUMPI PUSH2 0x37D PUSH2 0x1F1 JUMP JUMPDEST JUMPDEST PUSH0 DUP4 ADD CALLDATALOAD PUSH8 0xFFFFFFFFFFFFFFFF DUP2 GT ISZERO PUSH2 0x39B JUMPI PUSH2 0x39A PUSH2 0x1F5 JUMP JUMPDEST JUMPDEST PUSH2 0x3A7 DUP6 DUP3 DUP7 ADD PUSH2 0x308 JUMP JUMPDEST SWAP3 POP POP PUSH1 0x20 PUSH2 0x3B8 DUP6 DUP3 DUP7 ADD PUSH2 0x354 JUMP JUMPDEST SWAP2 POP POP SWAP3 POP SWAP3 SWAP1 POP JUMP JUMPDEST PUSH0 PUSH1 0x20 DUP3 DUP5 SUB SLT ISZERO PUSH2 0x3D7 JUMPI PUSH2 0x3D6 PUSH2 0x1F1 JUMP JUMPDEST JUMPDEST PUSH0 DUP3 ADD CALLDATALOAD PUSH8 0xFFFFFFFFFFFFFFFF DUP2 GT ISZERO PUSH2 0x3F4 JUMPI PUSH2 0x3F3 PUSH2 0x1F5 JUMP JUMPDEST JUMPDEST PUSH2 0x400 DUP5 DUP3 DUP6 ADD PUSH2 0x308 JUMP JUMPDEST SWAP2 POP POP SWAP3 SWAP2 POP POP JUMP JUMPDEST PUSH0 DUP2 MLOAD SWAP1 POP SWAP2 SWAP1 POP JUMP JUMPDEST PUSH0 DUP3 DUP3 MSTORE PUSH1 0x20 DUP3 ADD SWAP1 POP SWAP3 SWAP2 POP POP JUMP JUMPDEST PUSH0 JUMPDEST DUP4 DUP2 LT ISZERO PUSH2 0x440 JUMPI DUP1 DUP3 ADD MLOAD DUP2 DUP5 ADD MSTORE PUSH1 0x20 DUP2 ADD SWAP1 POP PUSH2 0x425 JUMP JUMPDEST PUSH0 DUP5 DUP5 ADD MSTORE POP POP POP POP JUMP JUMPDEST PUSH0 PUSH2 0x455 DUP3 PUSH2 0x409 JUMP JUMPDEST PUSH2 0x45F DUP2 DUP6 PUSH2 0x413 JUMP JUMPDEST SWAP4 POP PUSH2 0x46F DUP2 DUP6 PUSH1 0x20 DUP7 ADD PUSH2 0x423 JUMP JUMPDEST PUSH2 0x478 DUP2 PUSH2 0x201 JUMP JUMPDEST DUP5 ADD SWAP2 POP POP SWAP3 SWAP2 POP POP JUMP JUMPDEST PUSH2 0x48C DUP2 PUSH2 0x335 JUMP JUMPDEST DUP3 MSTORE POP POP JUMP JUMPDEST PUSH0 PUSH1 0x40 DUP3 ADD SWAP1 POP DUP2 DUP2 SUB PUSH0 DUP4 ADD MSTORE PUSH2 0x4AA DUP2 DUP6 PUSH2 0x44B JUMP JUMPDEST SWAP1 POP PUSH2 0x4B9 PUSH1 0x20 DUP4 ADD DUP5 PUSH2 0x483 JUMP JUMPDEST SWAP4 SWAP3 POP POP POP JUMP JUMPDEST PUSH32 0x4E487B7100000000000000000000000000000000000000000000000000000000 PUSH0 MSTORE PUSH1 0x22 PUSH1 0x4 MSTORE PUSH1 0x24 PUSH0 REVERT JUMPDEST PUSH0 PUSH1 0x2 DUP3 DIV SWAP1 POP PUSH1 0x1 DUP3 AND DUP1 PUSH2 0x504 JUMPI PUSH1 0x7F DUP3 AND SWAP2 POP JUMPDEST PUSH1 0x20 DUP3 LT DUP2 SUB PUSH2 0x517 JUMPI PUSH2 0x516 PUSH2 0x4C0 JUMP JUMPDEST JUMPDEST POP SWAP2 SWAP1 POP JUMP JUMPDEST PUSH0 DUP2 SWAP1 POP DUP2 PUSH0 MSTORE PUSH1 0x20 PUSH0 KECCAK256 SWAP1 POP SWAP2 SWAP1 POP JUMP JUMPDEST PUSH0 PUSH1 0x20 PUSH1 0x1F DUP4 ADD DIV SWAP1 POP SWAP2 SWAP1 POP JUMP JUMPDEST PUSH0 DUP3 DUP3 SHL SWAP1 POP SWAP3 SWAP2 POP POP JUMP JUMPDEST PUSH0 PUSH1 0x8 DUP4 MUL PUSH2 0x579 PUSH32 0xFFFFFFFFFFFFFFFFFFFFFFFFFFFFFFFFFFFFFFFFFFFFFFFFFFFFFFFFFFFFFFFF DUP3 PUSH2 0x53E JUMP JUMPDEST PUSH2 0x583 DUP7 DUP4 PUSH2 0x53E JUMP JUMPDEST SWAP6 POP DUP1 NOT DUP5 AND SWAP4 POP DUP1 DUP7 AND DUP5 OR SWAP3 POP POP POP SWAP4 SWAP3 POP POP POP JUMP JUMPDEST PUSH0 DUP2 SWAP1 POP SWAP2 SWAP1 POP JUMP JUMPDEST PUSH0 PUSH2 0x5BE PUSH2 0x5B9 PUSH2 0x5B4 DUP5 PUSH2 0x335 JUMP JUMPDEST PUSH2 0x59B JUMP JUMPDEST PUSH2 0x335 JUMP JUMPDEST SWAP1 POP SWAP2 SWAP1 POP JUMP JUMPDEST PUSH0 DUP2 SWAP1 POP SWAP2 SWAP1 POP JUMP JUMPDEST PUSH2 0x5D7 DUP4 PUSH2 0x5A4 JUMP JUMPDEST PUSH2 0x5EB PUSH2 0x5E3 DUP3 PUSH2 0x5C5 JUMP JUMPDEST DUP5 DUP5 SLOAD PUSH2 0x54A JUMP JUMPDEST DUP3 SSTORE POP POP POP POP JUMP JUMPDEST PUSH0 SWAP1 JUMP JUMPDEST PUSH2 0x5FF PUSH2 0x5F3 JUMP JUMPDEST PUSH2 0x60A DUP2 DUP5 DUP5 PUSH2 0x5CE JUMP JUMPDEST POP POP POP JUMP JUMPDEST JUMPDEST DUP2 DUP2 LT ISZERO PUSH2 0x62D JUMPI PUSH2 0x622 PUSH0 DUP3 PUSH2 0x5F7 JUMP JUMPDEST PUSH1 0x1 DUP2 ADD SWAP1 POP PUSH2 0x610 JUMP JUMPDEST POP POP JUMP JUMPDEST PUSH1 0x1F DUP3 GT ISZERO PUSH2 0x672 JUMPI PUSH2 0x643 DUP2 PUSH2 0x51D JUMP JUMPDEST PUSH2 0x64C DUP5 PUSH2 0x52F JUMP JUMPDEST DUP2 ADD PUSH1 0x20 DUP6 LT ISZERO PUSH2 0x65B JUMPI DUP2 SWAP1 POP JUMPDEST PUSH2 0x66F PUSH2 0x667 DUP6 PUSH2 0x52F JUMP JUMPDEST DUP4 ADD DUP3 PUSH2 0x60F JUMP JUMPDEST POP POP JUMPDEST POP POP POP JUMP JUMPDEST PUSH0 DUP3 DUP3 SHR SWAP1 POP SWAP3 SWAP2 POP POP JUMP JUMPDEST PUSH0 PUSH2 0x692 PUSH0 NOT DUP5 PUSH1 0x8 MUL PUSH2 0x677 JUMP JUMPDEST NOT DUP1 DUP4 AND SWAP2 POP POP SWAP3 SWAP2 POP POP JUMP JUMPDEST PUSH0 PUSH2 0x6AA DUP4 DUP4 PUSH2 0x683 JUMP JUMPDEST SWAP2 POP DUP3 PUSH1 0x2 MUL DUP3 OR SWAP1 POP SWAP3 SWAP2 POP POP JUMP JUMPDEST PUSH2 0x6C3 DUP3 PUSH2 0x409 JUMP JUMPDEST PUSH8 0xFFFFFFFFFFFFFFFF DUP2 GT ISZERO PUSH2 0x6DC JUMPI PUSH2 0x6DB PUSH2 0x211 JUMP JUMPDEST JUMPDEST PUSH2 0x6E6 DUP3 SLOAD PUSH2 0x4ED JUMP JUMPDEST PUSH2 0x6F1 DUP3 DUP3 DUP6 PUSH2 0x631 JUMP JUMPDEST PUSH0 PUSH1 0x20 SWAP1 POP PUSH1 0x1F DUP4 GT PUSH1 0x1 DUP2 EQ PUSH2 0x722 JUMPI PUSH0 DUP5 ISZERO PUSH2 0x710 JUMPI DUP3 DUP8 ADD MLOAD SWAP1 POP JUMPDEST PUSH2 0x71A DUP6 DUP3 PUSH2 0x69F JUMP JUMPDEST DUP7 SSTORE POP PUSH2 0x781 JUMP JUMPDEST PUSH1 0x1F NOT DUP5 AND PUSH2 0x730 DUP7 PUSH2 0x51D JUMP JUMPDEST PUSH0 JUMPDEST DUP3 DUP2 LT ISZERO PUSH2 0x757 JUMPI DUP5 DUP10 ADD MLOAD DUP3 SSTORE PUSH1 0x1 DUP3 ADD SWAP2 POP PUSH1 0x20 DUP6 ADD SWAP5 POP PUSH1 0x20 DUP2 ADD SWAP1 POP PUSH2 0x732 JUMP JUMPDEST DUP7 DUP4 LT ISZERO PUSH2 0x774 JUMPI DUP5 DUP10 ADD MLOAD PUSH2 0x770 PUSH1 0x1F DUP10 AND DUP3 PUSH2 0x683 JUMP JUMPDEST DUP4 SSTORE POP JUMPDEST PUSH1 0x1 PUSH1 0x2 DUP9 MUL ADD DUP9 SSTORE POP POP POP JUMPDEST POP POP POP POP POP POP JUMP JUMPDEST PUSH0 DUP2 SWAP1 POP SWAP3 SWAP2 POP POP JUMP JUMPDEST PUSH0 PUSH2 0x79D DUP3 PUSH2 0x409 JUMP JUMPDEST PUSH2 0x7A7 DUP2 DUP6 PUSH2 0x789 JUMP JUMPDEST SWAP4 POP PUSH2 0x7B7 DUP2 DUP6 PUSH1 0x20 DUP7 ADD PUSH2 0x423 JUMP JUMPDEST DUP1 DUP5 ADD SWAP2 POP POP SWAP3 SWAP2 POP POP JUMP JUMPDEST PUSH0 PUSH2 0x7CE DUP3 DUP5 PUSH2 0x793 JUMP JUMPDEST SWAP2 POP DUP2 SWAP1 POP SWAP3 SWAP2 POP POP JUMP INVALID LOG2 PUSH5 0x6970667358 0x22 SLT KECCAK256 0xD PUSH18 0x44AF0C35B621E005B250CD92EF83BD0BB72A ORIGIN PUSH1 0xFC 0xE3 BALANCE 0xD1 PUSH25 0xDBFE4FD65D64736F6C63430008160033000000000000000000 "
				},
				"gasEstimates": {
					"creation": {
						"codeDepositCost": "412600",
						"executionCost": "447",
						"totalCost": "413047"
					},
					"external": {
						"agePerson(string)": "infinite",
						"createPerson(string,uint256)": "infinite"
					}
				},
				"methodIdentifiers": {
					"agePerson(string)": "daed8f76",
					"createPerson(string,uint256)": "1ef455c7"
				}
			},
			"storageLayout": {
				"storage": [
					{
						"astId": 10,
						"contract": "simplestorage.sol:Simple",
						"label": "people",
						"offset": 0,
						"slot": "0",
						"type": "t_array(t_struct(Person)6_storage)dyn_storage"
					},
					{
						"astId": 15,
						"contract": "simplestorage.sol:Simple",
						"label": "agePerson",
						"offset": 0,
						"slot": "1",
						"type": "t_mapping(t_string_memory_ptr,t_struct(Person)6_storage)"
					}
				],
				"types": {
					"t_array(t_struct(Person)6_storage)dyn_storage": {
						"base": "t_struct(Person)6_storage",
						"encoding": "dynamic_array",
						"label": "struct Simple.Person[]",
						"numberOfBytes": "32"
					},
					"t_mapping(t_string_memory_ptr,t_struct(Person)6_storage)": {
						"encoding": "mapping",
						"key": "t_string_memory_ptr",
						"label": "mapping(string => struct Simple.Person)",
						"numberOfBytes": "32",
						"value": "t_struct(Person)6_storage"
					},
					"t_string_memory_ptr": {
						"encoding": "bytes",
						"label": "string",
						"numberOfBytes": "32"
					},
					"t_string_storage": {
						"encoding": "bytes",
						"label": "string",
						"numberOfBytes": "32"
					},
					"t_struct(Person)6_storage": {
						"encoding": "inplace",
						"label": "struct Simple.Person",
						"members": [
							{
								"astId": 3,
								"contract": "simplestorage.sol:Simple",
								"label": "name",
								"offset": 0,
								"slot": "0",
								"type": "t_string_storage"
							},
							{
								"astId": 5,
								"contract": "simplestorage.sol:Simple",
								"label": "age",
								"offset": 0,
								"slot": "1",
								"type": "t_uint256"
							}
						],
						"numberOfBytes": "64"
					},
					"t_uint256": {
						"encoding": "inplace",
						"label": "uint256",
						"numberOfBytes": "32"
					}
				}
			},
			"userdoc": {
				"kind": "user",
				"methods": {},
				"version": 1
			}
		}
	}
}